:020000040800F2
:10000000880B0020B50100085D2E0008CD200008F7
:10001000152A0008E9180008993D000800000000B2
:10002000000000000000000000000000193300087C
:10003000ED180008000000000132000885340008B7
:10004000CF010008CF010008CF010008CF01000850
:10005000CF010008CF010008CF010008CF01000840
:10006000CF010008CF010008CF010008CF01000830
:10007000CF010008CF010008CF010008CF01000820
:10008000CF010008CF010008CF010008CF01000810
:10009000CF010008CF010008CF010008CF01000800
:1000A000CF010008CF010008CF010008CF010008F0
:1000B000CF010008CF010008CF010008CF010008E0
:1000C000CF010008CF010008CF010008CF010008D0
:1000D000CF010008CF010008CF010008E538000873
:1000E000CF010008CF010008CF01000800F002F89E
:1000F00000F050F80AA090E8000C82448344AAF172
:100100000107DA4501D100F045F8AFF2090EBAE86F
:100110000F0013F0010F18BFFB1A43F0010318473B
:100120006C4C00008C4C0000103A24BF78C878C199
:10013000FAD8520724BF30C830C144BF04680C60ED
:10014000704700000023002400250026103A28BF35
:1001500078C1FBD8520728BF30C148BF0B60704739
:10016000662904F0CE82642900F08280752900F0AF
:100170007F80732900F01584002070471FB500F0C0
:1001800015FC04000020002103F068FFE0601FBDA3
:1001900010B510BD00F00AFD1146FFF7EFFF03F0A8
:1001A00063FE00F028FD03B4FFF7F2FF03BC00F08C
:1001B0006BFD00000948804709480047FEE7FEE75D
:1001C000FEE7FEE7FEE7FEE7FEE7FEE7FEE7FEE707
:1001D00004480549054A064B704700008934000869
:1001E000ED00000888050020880B0020880700200B
:1001F000880700200FB41CB5074B06AA7B4469464C
:100200000090059800F0A3FB0020694600F0B2FBC7
:100210001CBC5DF814FB00007507000070B50C46AF
:100220000546012A05D02878800600D5EA69002312
:1002300002E0012305E05B1C934202D2E05C00284F
:10024000F9D1A869E618C01AA861286A184428627A
:100250002846AFF3008004E0D5E9012114F8010B32
:100260009047B442F8D32846AFF3008070BD000039
:100270002DE9F0410646002410687529314616A57F
:1002800010D0AFF30080002802DA404213A507E047
:1002900031688A0701D512A502E0490704D511A5E6
:1002A000012401E0AFF3008000210A2206F12407B7
:1002B00009E0B0FBF2FCB0FBF2F302FB1C003030B3
:1002C00078541846491C0028F3D123462A46304664
:1002D000BDE8F04100F0CDB8000000002D000000A6
:1002E0002B000000200000002DE9F0474FF0000A2D
:1002F00089460446C0F820A02046E16888470028C7
:1003000076D0252806D0D4E901219047206A401CE8
:100310002062F1E7E168204600268847C4F81CA067
:1003200005460027C4F818A02A2D09D0284603F056
:1003300049FD38B304EB8708303DC8F8185019E080
:1003400059F8041B204604EB87029161E168884755
:10035000012F054618D1E069002820DA26F0200692
:100360001DE0D8F8180000EB800005EB40003038A5
:10037000C8F818002046E1688847054603F022FDCA
:100380000028EED1012F0AD02E2D08D12046E16899
:1003900088477F1C0546022F46F02006C4DBA06973
:1003A000002803DA404246F00106A061F00701D0C0
:1003B00026F010066C2D0AD0682D08D04C2D39D0AF
:1003C0006A2D35D0742D35D07A2D33D016E0E16802
:1003D0002F4620468847B84205460AD16C2F27D0C1
:1003E0004FF48060E168064320468847054605E0F3
:1003F00027E06C2F1AD04FF4807006430DB3A5F19F
:100400004100192802D8203546F400664A4629469C
:10041000204626604E46FFF7A3FE80B101280BD090
:10042000F61D26F0070000F1080965E74020E4E723
:100430008020D7E70020D5E706F104095CE72846CD
:1004400061E7206ABDE8F08730B505460B462A46CD
:1004500013F8014B12F8010B08B1A042F8D01CB1FF
:10046000002802D06D1CF1E7284630BD7047704768
:1004700070472DE9F0470D4699469246044600F133
:1004800024080168880604D5E06921F01001216084
:1004900000E00120A84201DD471B00E00027A16920
:1004A0007A1902EB0900081AA0612078C00602D46C
:1004B0002046AFF30080002608E0D4E901211AF8B5
:1004C00006009047206A401C761C20624E45F4DBF3
:1004D0002078C0060AD52046AFF3008006E0D4E9B4
:1004E000012130209047206A401C2062381EA7F16D
:1004F0000107F4DC07E0D4E9012118F80500904772
:10050000206A401C2062281EA5F10105F3DC20466C
:10051000AFF300802078000602D50220BDE8F08706
:100520000120FBE770472DE9FF4F0C461E464FF0B8
:10053000FF378BB0D2E90001DDF860800A908A466F
:10054000C1F30A5505B93D46002108464FF00000A9
:10055000BAF1000F00F4400005DA00EB80004FF420
:10056000400101EA50004FEA9059B9F1010F00DD56
:10057000B9460A9850EA4A000ED044F61050A5F247
:10058000FF3545432F14B8F1000F1ED07542291EC8
:100590001EDDC9F100021CE0B8F1010F4FF00000B0
:1005A00001D0302103E0F24305E02154401CB04269
:1005B000FBDB30460022002121540B99C1F8088052
:1005C000C1E900200FB0BDE8F08FBD1B6D1CDEE758
:1005D0004A4600DA694206A800F072FA06AB93E8D0
:1005E000070003AB83E8070050460A9900F053FB6D
:1005F0008DE80700A0F500501F3800900398002DEB
:100600000ADD42F21F014A460844002303A9039071
:10061000684600F0BCFD09E0A0F500504A461F38CE
:10062000002303A90390684600F0C6FD8DE807008B
:100630000004000C03D04FF0FF30410800E01046EA
:10064000B8F1000F03D00022009215461EE0751E7F
:1006500005D400F0AFF9303262556D1EF9D5B346BE
:100660000122084302D000227F1C04E020783028B9
:1006700001D100227F1E002A099784D01DE0112D90
:1006800007DA00F097F9303262556D1C50EA01022A
:10069000F5D1084302D00098C8B10EE00021681ED1
:1006A00005E0235C625C63542254401E491C814275
:1006B000F7DBAB46A81B401E0990002004F80B0096
:1006C0000B98099AC0F80880C0E9002B7AE7112638
:1006D0004FF0000857E72DE9F04F88460446D21D39
:1006E00022F0070191B0D1E90001CDE90A0103F040
:1006F00055FB02460B98C00F01D02D2007E0206863
:10070000810701D52B2002E0202101EAC000032A45
:10071000099001D0072A05DB03464146204600F038
:100720008FF90BE12078800601D5E06900E0062012
:10073000B8F1650F814606D0B8F1660F18D0B8F150
:10074000670F70D131E00020B9F1110F009001DB8B
:10075000112301E009F101030AAA01A90CA8FFF77E
:10076000E2FEDDE90C70002609F10105834647E051
:1007700001204B4600904FF000470AAA01A90CA89F
:10078000FFF7D1FEDDE90DB00C995D46002610B9EA
:1007900009F101000D18B9EB050003D4C0F1FF36D3
:1007A00009F10105A5EB09002BE0B9F1010F01DA10
:1007B0004FF001090020B9F1110F0090484601DD0A
:1007C000112300E003460AAA01A90CA8FFF7ABFE1B
:1007D000DDE90C704D4600268346207800070AD4D8
:1007E000AB4500DA5D4601A8012D04DD411911F881
:1007F000011C302907D04F4502DA17F1040F04DA43
:10080000012082460FE06D1EEEE7002F02DCED1B9B
:100810003E4403E0781CA84200DD7D1CB81B00F1BB
:10082000010A4FF000472078000703D4AA4501DBF6
:100830004FF0FF3A0021B7F1004F0DF143088DF85A
:10084000431024D002202B23002F01DA7F422D23D6
:100850000A21021EA0F1010000DC5FB197FBF1FC50
:1008600097FBF1F201FB1C7C17460CF1300C08F8E9
:1008700001CDEEE7A8F1010003702188090501D53B
:10088000452100E06521A0F1010800F8011C09984C
:100890000FA9A1EB0807FF1D00B10120411901EBD1
:1008A000EA70A1693844081A401EA0612078C00689
:1008B00002D42046AFF30080099828B1D4E9012181
:1008C0009047206A401C20622078C00622D520462E
:1008D000AFF300801EE0002E04DBB34502DD01A86B
:1008E000805D00E03020D4E901219047206A401C5F
:1008F0002062761CAAF101005FEA000A0AD100F02A
:1009000055F8C0680168405CD4E901219047206A2D
:10091000401C2062281EA5F10105DCDC07E0D4E9BB
:10092000012118F8010B9047206A401C2062381EF4
:10093000A7F10107F3DC2046AFF30080032011B0DC
:1009400041E6000001694A1C02610878704700B561
:100950008FB0CDE901310021059105497944CDE9F8
:10096000031011466846FFF7BFFC0FB000BD000042
:10097000E5FFFFFF0A6802F8010B0A60704710B537
:10098000436913B1AFF3008001E0FFF747FC01209A
:1009900010BD127800F124010A7000224A70012271
:1009A000EDE711684FF0FF32E9E7000000487047BB
:1009B0004405002030B5B0F10A024FEA900E71F103
:1009C00000034EEA817EB0EB0E0061EB91014FEA2D
:1009D000101E4EEA017E10EB0E0041EB11114FEAA2
:1009E000102E4EEA016E10EB0E0041EB11214FEA82
:1009F000104E4EEA014E10EB0E0041EB1141401833
:100A000041F100014FEAD00040EA41704FEAD101C4
:100A100010EB80054FEA810444EA907444EB010432
:100A20006D1944EB0404521BA3414FF0000348BF6F
:100A30000A3200D530BD401C41F1000130BD00003C
:100A40002DE9F0411F46044603260168072A01F4F8
:100A5000006004DB08B116A505E016A503E008B1A7
:100A600015A500E015A521F010002060A069C01EAA
:100A7000A0610FB1401EA0612046AFF300804FB1CE
:100A8000D4E9012138469047206A401C2062C01CEE
:100A9000206206E0206AFAE7D4E9012115F8010B8B
:100AA0009047761EF8D22046AFF30080BDE8F08173
:100AB0004E414E006E616E00494E4600696E660002
:100AC0002DE9F047814616468AB0354878440DC86E
:100AD0008DE80D0032487844801C03AC0DC884E8D2
:100AE0000D0041F69B300844372190FBF1F290FB5A
:100AF000F1F5A5F1800501FB12041B3C02D564420F
:100B0000012000E00020DFF898A080460027FA448A
:100B1000AAF1BE0A0EE0E0070AD03246684607EBAB
:100B2000470101230AEB810100F046FB8DE8070035
:100B300064107F1C002CEED1194F7F44AE3F19E0AA
:100B4000E80715D007EB04100DF1180A90E80E0025
:100B50008AE80E00C068F04201D198190890324628
:100B6000012306A903A800F027FB03AB83E80700D5
:100B70006D10641C002DE3D14FF00103324669462D
:100B8000B8F1000F03A802D000F001FB01E000F073
:100B900013FBC9E90001C9F808200AB0BDE8F087D5
:100BA000A442000000487047240500207546FFF766
:100BB000F9FFAE4605006946534620F0070085461A
:100BC00018B020B5FFF704FBBDE820404FF0000649
:100BD0004FF000074FF000084FF0000B21F0070125
:100BE000AC46ACE8C009ACE8C009ACE8C009ACE868
:100BF000C0098D46704710B50446AFF3008020460B
:100C0000BDE81040FFF7CFBA4FF0013C50F8042B7D
:100C100051F8043B9A4221D1A2EB0C03934313EA0F
:100C2000CC1317D150F8042B51F8043B9A4215D13C
:100C3000A2EB0C03934313EACC130BD150F8042B13
:100C400051F8043B9A4209D1A2EB0C03934313EAF7
:100C5000CC13DBD04FF00000704700BFD01A01BAB0
:100C6000B1FA81F101F0180122FA01F0CB40C1F193
:100C70002001DBB2C0B2C01A2CFA01F3D11A9143A1
:100C800011EAC311E6D1704701491820ABBEFEE757
:100C90002600020070475FEA400C08BF91F0000F89
:100CA0004FEA8C234FEAC12243EA51514FEA1C50CC
:100CB00018BF00F5F0404FEA300018BF41F0004186
:100CC0005FEA6C5C00F02980BCF1FF3F08BF40F098
:100CD00080407047130C06BF12044FF0100C4FF009
:100CE000000C130E04BF12020CF1080C130F04BF0A
:100CF00012010CF1040C930F04BF92000CF1020CD2
:100D0000D30F04BF52000CF1010C11464FF000024A
:100D1000A0F11F00A0EB0C00704711F0004F08BFBE
:100D2000704731F000413FF4D5AF0B0C06BF09040A
:100D30004FF0100C4FF0000C0B0E04BF09020CF129
:100D4000080C0B0F04BF09010CF1040C8B0F04BF3E
:100D500089000CF1020CCB0F04BF49000CF1010C0F
:100D6000CCF12003A0EB0C0022FA03F302FA0CF200
:100D700041EA030100F10100704720F07F4C80EA56
:100D8000030023F07F47ACEB070303F57C5300F02F
:100D9000004003F1FF032DE980494FEA154B09B4E8
:100DA0004FEA144325EA0B4E24EA03480FF20426C7
:100DB00006EB132749083E785FEA320203FB066719
:100DC000C7F5000707FB06F64FEA54374FEAD64649
:100DD00006F1020607FB066CCCF1005C4FEA1C47EB
:100DE0002CEA074C07FB06F40CFB06F504EB154652
:100DF0004FEA961634BF00204FF000404FEAD1373B
:100E000006FB07FC4FEA1C4C0CFB0BF7D21B03FB49
:100E10000CF761EB07010CFB0EF7B0EB074072EB30
:100E200017420CFB08F734BFA2EB0742B2EB0742B4
:100E300061EB17414FEA0C444FEA910706FB07FCB0
:100E40004FEA1C4C0CFB0BF7B0EBC74072EB573270
:100E500003FB0CF734BFA2EBC742B2EBC74261EB16
:100E600057310CFB0EF7B0EBC70072EB57720CFB5F
:100E700008F734BFA2EBC702B2EBC70261EB5771B0
:100E8000039F4FEA816141EA921104EBCC044FEADF
:100E9000D1374FEA826206FB07FC42EA90124FEA22
:100EA00080604FEA1C4C0CFB0BF7D21B03FB0CF7CA
:100EB00061EB07010CFB0EF7B0EB074072EB17423A
:100EC0000CFB08F734BFA2EB0742B2EB074261EB21
:100ED00017414FEA8C554FEA910704EB9C2406FB1F
:100EE00007FC4FEA1C4C0CFB0BF7B0EBC74072EB56
:100EF000573203FB0CF734BFA2EBC742B2EBC74239
:100F000061EB57310CFB0EF7B0EBC70072EB577279
:100F10000CFB08F734BFA2EBC702B2EBC70261EBD0
:100F2000577115EB4C254FEA816141EA92114FEA66
:100F300082624FEAD13742EA901206FB07FC44F185
:100F400000044FEA80604FEA1C4C0CFB0BF7D21BED
:100F500003FB0CF761EB07010CFB0EF7B0EB07404E
:100F600072EB17420CFB08F734BFA2EB0742B2EB5F
:100F7000074261EB174115EB1C154FEA813141EA3D
:100F800092414FEA823242EA90424FEA80304FEA81
:100F90000C7644F1000448EA03434EEA0B484FF054
:100FA000000EB2EB080C71EB030724BF6246394612
:100FB0004EEB0E0E4FF0000B0018524149414BEB27
:100FC0000B0BB2EB080C71EB03077BF1000B24BF9A
:100FD000624639464EEB0E0E4FF0000B00185241A0
:100FE00049414BEB0B0BB2EB080C71EB03077BF1A8
:100FF000000B24BF624639464EEB0E0E51EA020743
:1010000018BF46F0010616EB0E7655F1000254F1BA
:10101000000103D5BDE88901BDE80088BDE889016C
:10102000BDE80048B619524141EB0101A3F10103AB
:10103000704780807F7E7D7C7B7A79787776767545
:101040007473727171706F6E6E6D6C6C6B6A6A69BD
:101050006868676666656464636362616160605F57
:101060005F5E5E5D5D5C5C5B5B5A5A5959585857D0
:101070005756565555555454535352525251515038
:1010800050504F4F4F4E4E4D4D4D4C4C4C4B4B4B8B
:101090004A4A4A49494948484847474747464646D1
:1010A000454545444444444343434342424242410C
:1010B0004141002B9C4630D477002BD01CB54FEA21
:1010C000370703B44FF010004FF01001BAF1000FD2
:1010D00006D0BCF1000FDCBF40F0080040F0080172
:1010E0004FF000000FBCBDE810400BF1010BBBF14D
:1010F000010F08BF5FEA170722BF12F1010211F1C9
:1011000001014FF0004143F1000300F0004043EAC9
:1011100000007047F9D35708D0E746EA064613F1B6
:10112000400F4FEA16461FDD13F1200FDFBF1643B5
:101130000A46002120335B42BED0C3F1200746EAB5
:10114000064602FA07F74FEA164646EA0706C3F1D3
:10115000200722FA03F201FA07F721FA03F14FF010
:10116000000342EA0702A7E746EA020646EA064605
:101170004FEA164646EA0106BCBF46EA0646360C6A
:101180004FF000034FF000024FF0000194E72DE90B
:10119000804C9A46934670B491E8380007C831EA0B
:1011A000400C48BF34EA430C03D5FFF7E6FDFFF7D8
:1011B00080FFF0BCBDE8008C2DE9804C9A46934638
:1011C00070B491E8380007C810F0804F08BF13F0E2
:1011D000804F03D100F005F8FFF76BFFF0BCBDE8CE
:1011E000008C20F07F4780EA030023F07F4C07EB60
:1011F0000C03A3F57C5300F00040A3F1FE0392F032
:10120000000F00F0B38095F0000F00F077802DE91B
:1012100001494FEA11404FEA144621EA004800FB19
:1012200006FC24EA064708FB06F607FB08F800FB65
:1012300007F718EB06484CEB164C4FEA124B18EB2D
:1012400007484FEA15464CEB174022EA0B4E0BFBC2
:1012500006FC25EA06470EFB06F607FB0EFE0BFB17
:1012600007F71EEB064E4CEB164C4FF000061EEB3C
:10127000074E4CEB174B18EB0B0840F1000018EB36
:101280000E0B58EB000840F100008F1A4FF00001E0
:101290003CBFC943661B14BFB5EB040C00213CBF27
:1012A000C943F61B4FEA17444EEA8E0E27EA04455F
:1012B0004FEA1C4704FB07622CEA074C05FB07F7C3
:1012C0000CFB05F604FB0CFC16EB074642EB174241
:1012D00016EB0C4642EB1C421BEB060658EB0202D7
:1012E000414146EA9E0601D5BDE80189B619524141
:1012F00041EB0101A3F10103BDE801894FEA144567
:101300004FEA114724EA054621EA074C05FB07F49A
:1013100006FB07F70CFB06F105FB0CFC11EB074184
:1013200044EB17444FEA124711EB0C4144EB1C44C9
:1013300022EA074C05FB07F206FB07F70CFB06F653
:1013400005FB0CFC16EB074642EB174216EB0C466E
:1013500042EB1C456A1854F1000148BF7047B619AA
:10136000524141EB0101A3F10103704795F0000FD9
:1013700037D04FEA11424FEA144721EA024624EAE5
:10138000074C02FB07F106FB07F70CFB06F402FB18
:101390000CFC14EB074441EB17414FEA154714EBE3
:1013A0000C4441EB1C4125EA074C02FB07F506FB08
:1013B00007F70CFB06F602FB0CFC16EB074645EBA9
:1013C000174516EB0C4645EB1C42121951F1000172
:1013D00048BF7047B619524141EB0101A3F1010327
:1013E00070474FEA14454FEA114724EA054621EABF
:1013F000074C05FB07F106FB07F70CFB06F24FF065
:10140000000605FB0CFC12EB074241EB174112EB07
:101410000C4251EB1C4148BF7047921841EB01014F
:10142000A3F10103704721B1826842F0010282609A
:1014300003E0826822F001028260704701460020CA
:101440008A6802F004020AB1012000E0002070471F
:101450000146C86C80B270470246002013680B40FA
:101460000BB1012000E000207047014600208A688F
:1014700002F008020AB1012000E0002070470000DD
:1014800030B502460020002350680F4C20400D79F3
:101490000C6844EA05242043506090680B4C2040BF
:1014A000D1E902542C434D7944EA4504204390602D
:1014B000D06A20F470000C7C641EE4B2234340EA3E
:1014C0000350D06230BD0000FFFEF0FFFDF7F1FFDA
:1014D000F0B504460D4600200021092D11DDE0681D
:1014E000A5F10A0606EB4607072606FA07F1884328
:1014F000A5F10A0606EB460603FA06F10843E0608A
:101500000CE0206905EB4507072606FA07F188433A
:1015100005EB450603FA06F108432061072A0FDAB6
:10152000606B561E06EB86071F2606FA07F18843F6
:10153000561E06EB860605FA06F10843606322E0B4
:101540000D2A0FDA206BD61F06EB86071F2606FA38
:1015500007F18843D61F06EB860605FA06F1084315
:10156000206310E0E06AA2F10D0606EB86071F2655
:1015700006FA07F18843A2F10D0606EB860605FA86
:1015800006F10843E062F0BD816841F00801816026
:10159000704721B1826842F4A002826003E0826851
:1015A00022F4A00282607047816841F004018160EA
:1015B0007047000008B50AA000680090094800F0D4
:1015C000E9FD0A2000F093F9282000F090F90322A9
:1015D0006946702000F094FE142000F088F908BDE0
:1015E000BE080000A08601002DE9FE4F04460D460E
:1015F00028A000680290002000900190032202A918
:10160000702000F07DFE502000F071F9062269463E
:10161000702000F0F7FD9DF8000000F0800010B190
:101620000120BDE8FE8F9DF8010000039DF8021027
:1016300040EA01109DF8031040EA2116304602F0FE
:10164000A5FE8146144902F0E9FE80464FF0934121
:1016500002F0BAFD28609DF803000007000B9DF81A
:10166000041040EA01209DF8051040EA01073846C1
:1016700002F08CFE8246094902F0D0FE81464FF00E
:10168000934102F0A1FD8046054902F0C5FF2060AC
:101690000020C6E7AC3300000000C8420000484309
:1016A0000000484270B592B00025002601F010FC01
:1016B00017A20121084601F06FFD194819A102681F
:1016C0000DA8FEF797FD0DAA0121022001F064FD8F
:1016D00019A20121042001F05FFD114819A102683F
:1016E0006846FEF787FD684601F018FE0CE000F042
:1016F000FDFE0446B44203D0042C00D10125264649
:10170000642000F0F4F800BF002DF0D012B070BDDE
:101710003D3D3D20416C61726D73203D3D3D0000BB
:1017200004000020546F74616C20416C61726D7311
:101730003A20256C750000004B6579343A204261EF
:10174000636B00005B5354415455535D20546F74D8
:10175000616C20616C61726D733A20256C750000BC
:1017600010B500F027F8322000F0C1F800F01AF8A8
:1017700010BD000008B50121042001F053FD102028
:101780008DF803000420ADF8000003208DF802005E
:101790006946034800F060FA00F004F808BD000054
:1017A0000008014010B50421014800F0F4FA10BD12
:1017B0000008014010B50421014800F0EAFA10BD0C
:1017C0000008014070B50025002601F081FB21A230
:1017D0000121084601F0E0FC2348007870B123A203
:1017E0000121022001F0D8FC25A20121032001F0F3
:1017F000D3FC00F0FBFE00F003FF0DE024A201216A
:10180000022001F0C9FC28A20121032001F0C4FC40
:1018100000F000FF00F0E0FE28A20121042001F00A
:10182000BBFC29A001F07AFD0CE000F05FFE04464D
:10183000B44203D0042C00D101252646642000F0D8
:1018400056F800BF002DF0D000F0DAFE00F0C4FE24
:1018500070BD00003D3D3D20426C7565746F6F7436
:1018600068203D3D3D000000080000205374617475
:1018700075733A20436F6E6E656374656400000093
:101880004465766963653A204A44592D3331000036
:101890005374617475733A20446973636F6E6E6537
:1018A0006374656400000000436865636B20436FE8
:1018B0006E6E656374696F6E000000004B6579346D
:1018C0003A204261636B00005B5354415455535DB1
:1018D00020426C7565746F6F7468207374617475E1
:1018E0007320636865636B0000BFFEE7704700B557
:1018F000034603E04FF47A7000F005F8181EA3F1D8
:101900000103F7D100BD00EBC001C9004FF0E02298
:101910005161002191610521116100BF4FF0E0216B
:10192000096901F480310029F8D004214FF0E02248
:101930001161704710B501200449087004A001F03E
:10194000EDFC3220FFF7D3FF10BD00003200002075
:101950005B46414E5D204175746F206D6F6465205C
:10196000656E61626C65640010B50821034800F083
:1019700010FA0221014800F00EFA10BD00080140E3
:1019800070B508210F4800F0FBF9044602210D480C
:1019900000F0F6F9054614B90DB9002070BD1CB968
:1019A000012D01D10120F9E7012C02D10DB902204E
:1019B000F4E7012C03D1012D01D10320EEE7002033
:1019C000ECE700000008014008B50121042001F007
:1019D00029FC0A20ADF8000010208DF80300032038
:1019E0008DF802006946034800F036F900F028F946
:1019F00008BD0000000801402DE9F0410025002647
:101A000001F066FA43A20121084601F0C5FB46A297
:101A10000121022001F0C0FB47A20121032001F0B7
:101A2000BBFB48A20121042001F0B6FB4AA001F053
:101A300075FC63E0FFF7A4FF07464F48007828B124
:101A40004EA20621022001F0A7FB04E04DA20621D0
:101A5000022001F0A1FB37B1012F0AD0022F0ED0D6
:101A6000032F18D111E049A20521032001F094FBB6
:101A700011E048A20521032001F08EFB0BE047A2F4
:101A80000521032001F088FB05E046A20521032083
:101A900001F082FB00BF00BF00F028FD0446B44205
:101AA00016D0A4B1012C06D0022C07D0032C08D0EC
:101AB000042C0BD108E000F0A7F807E000F088F84C
:101AC00004E0FFF737FF01E0012500BF00BF264615
:101AD0002948007870B100F08BFF3449088008462F
:101AE000008833490988884202DDFFF73DFF01E0A5
:101AF00000F0A6F86420FFF7FAFE00BF002D99D091
:101B00002CA001F00BFC00F09BF800F0B3FFBDE847
:101B1000F08100003D3D3D2046616E20436F6E74B4
:101B2000726F6C203D3D3D004D6F64653A204D6104
:101B30006E75616C0000000046616E3A202D2D2DFF
:101B40002D0000002D2D2D2D2D2D2D2D2D2D2D2D4C
:101B50002D2D2D2D2D2D2D005B46414E5D20456EEA
:101B60007465722066616E20636F6E74726F6C2094
:101B70006D6F646500000000320000204175746FD5
:101B8000200000004D616E75616C000053746F7031
:101B9000200000004F4E202020000000524556201B
:101BA000200000004272616B650000002C000020E4
:101BB000300000205B46414E5D2045786974206608
:101BC000616E20636F6E74726F6C206D6F64650060
:101BD00010B500F035F800200449087004A001F0A9
:101BE0009DFB3220FFF783FE10BD00003200002075
:101BF0005B46414E5D204D616E75616C3A204661D9
:101C00006E204F464600000010B5FFF7ADFE0020E5
:101C10000449087004A001F081FB3220FFF767FE41
:101C200010BD0000320000205B46414E5D204D613A
:101C30006E75616C3A2046616E204F4E00000000C8
:101C400010B50821034800F0A4F80221014800F073
:101C5000A0F810BD000801402DE9F0410246002522
:101C60000026002000230024002791F803C00CF078
:101C70000F0591F803C00CF0100CBCF1000F03D05D
:101C800091F802C04CEA050591F800C0BCF1000FC4
:101C900031D0146800202BE04FF0010C0CFA00F357
:101CA000B1F800C00CEA03069E4220D183004FF039
:101CB0000F0C0CFA03F7BC4305FA03FC4CEA0404CE
:101CC00091F803C0BCF1280F06D14FF0010C0CFABB
:101CD00000FCC2F814C00AE091F803C0BCF1480F40
:101CE00005D14FF0010C0CFA00FCC2F810C0401CEA
:101CF0000828D1D31460B1F800C0BCF1FF0F34DD67
:101D0000546800202EE000F1080C4FF0010808FA9A
:101D10000CF3B1F800C00CEA03069E4221D1830007
:101D20004FF00F0C0CFA03F7BC4305FA03FC4CEA26
:101D3000040491F803C0BCF1280F05D100F1080C90
:101D400008FA0CF8C2F8148091F803C0BCF1480FEF
:101D500007D100F1080C4FF0010808FA0CF8C2F89E
:101D60001080401C0828CED35460BDE8F0810246A4
:101D7000002093680B400BB1012000E00020704769
:101D800002460020D3680B400BB1012000E0002088
:101D9000704741617047016170470AB1016100E01D
:101DA0004161704770B50025002601F091F814A23A
:101DB0000121084601F0F0F915A20121022001F0ED
:101DC000EBF917A20121032001F0E6F918A2012185
:101DD000042001F0E1F919A001F0A0FA0CE000F0F4
:101DE00085FB0446B44203D0042C00D101252646CD
:101DF0006420FFF77CFD00BF002DF0D070BD000017
:101E0000476173205468726573686F6C6473000077
:101E10004E6F726D616C203C203530300000000048
:101E20005761726E203530302D38303000000000A0
:101E3000416C61726D203E20383030005B54485256
:101E40004553485D20566965772067617320746843
:101E5000726573686F6C6473000000002DE9F041D7
:101E600090B04FF00008002701F032F85AA201218B
:101E7000084601F091F95BA20121022001F08CF9E2
:101E80005BA20121032001F087F95BA2012104205C
:101E900001F082F95EA001F041FA89E0032000F030
:101EA0008FFD6249088000F021FD064660A20721EF
:101EB000022001F071F904235C4802880721022006
:101EC00001F048F936B1012E0AD0022E0ED0032EB1
:101ED00024D11DE058A20721032001F05DF91DE087
:101EE00057A20721032001F057F917E056A2072156
:101EF000032001F051F9FFF75DFC3220FFF7F7FCFA
:101F0000FFF750FC52480068401C5149086005E04A
:101F100050A20721032001F03FF900BF00BF781C49
:101F2000C7B2032F1ADB26B1012E04D0022E06D130
:101F300003E04AA405E042A403E04AA401E04BA464
:101F400000BF00BF2346394802884AA101A8FEF716
:101F500051F901A801F0E2F9002700BF00F0C6FA2C
:101F60000546032D18D1FFF71DFF00F0B1FF1AA29F
:101F70000121084601F010F91AA20121022001F006
:101F80000BF91BA20121032001F006F91AA201217D
:101F9000042001F001F906E0042D04D14FF00108FE
:101FA0003BA001F0BBF94FF49670FFF7A0FC00BF17
:101FB000B8F1000F3FF472AF00F08AFF3BA201219D
:101FC000032001F0E9F8C820FFF791FC00F052FD72
:101FD00010B0BDE8F08100003D3D3D204761732019
:101FE0003D3D3D0056616C75653A202D2D2D2D002F
:101FF0004C6576656C3A00004B6579333A546872EB
:10200000657368204B6579343A4261636B00000068
:102010005B4741535D20456E746572206761732094
:1020200076696577206D6F64650000002C000020E4
:1020300020202020000000004E6F726D616C200097
:102040005761726E696E6700414C41524D2120000C
:10205000040000204572726F722020004E6F726D76
:10206000616C0000414C41524D0000004572726F9E
:10207000720000005B4741535D2056616C75653A04
:102080002025642C204C6576656C3A202573000071
:102090005B4741535D204578697420676173207602
:1020A000696577206D6F646500000000457869748C
:1020B000696E672E2E2E00000348006802490968E9
:1020C000491C014A116070471C00002000BFFEE758
:1020D00021B1028842F48062028004E002884FF657
:1020E000FF331A400280704770B502460024002575
:1020F00000230020958A138B1B0445EA030626F073
:102100007F4404EA01068E4201D1012000E0002054
:1021100070BD21B1028842F00102028004E0028811
:102120004FF6FE731A400280704721B1028842F4D4
:102130008072028004E002884FF6FF631A4002803A
:10214000704721B1028842F40072028004E00288E4
:102150004FF6FF531A40028070470CB5024600202C
:1021600000230193009300920B0F019321F07F4114
:10217000019B1BB1009B1433009303E0090C009BEF
:1021800018330093009B1B680B400BB1012000E04B
:1021900000200CBD10B586B004460121082001F0D6
:1021A00041F80121480501F02DF8C020ADF81400D8
:1021B0001C208DF8170003208DF8160005A90F4884
:1021C000FFF74AFD01940020ADF808004BF6FF70C0
:1021D000ADF80A004FF48060ADF80E000001ADF8D4
:1021E00010000020ADF80C0001A9054800F0F8F837
:1021F00001210348FFF78DFF06B010BD000C014020
:10220000005400402DE9F041074688461646002458
:1022100007E0601C84B242F21070844201DDBDE828
:10222000F0814FF400313448FFF797FF0028F0D1D8
:1022300001213148FFF779FF00240AE0601C84B2D5
:1022400042F21070844204DD01212B48FFF779FF30
:10225000E5E72A492848FFF747FF0128EED1012288
:102260003946254800F036F900240AE0601C84B2A3
:1022700042F21070844204DD01211F48FFF761FF24
:10228000CDE71E49491C1C48FFF72EFF0128EDD160
:10229000002525E0701EA84203D100211648FFF753
:1022A00017FF00240EE0601C84B242F210708442DA
:1022B00008DD01211048FFF744FF01210E48FFF718
:1022C00007FFACE70D493F310B48FFF70DFF012831
:1022D000E9D1094800F0FAF808F80500681C85B251
:1022E000B542D7DB01210448FFF72BFF012102484B
:1022F000FFF7EEFE00BF92E700540040010003002C
:102300002DE9F04106460F469046002407E0601C88
:1023100084B242F21070844201DDBDE8F0814FF4D6
:1023200000312C48FFF719FF0028F0D1012129487E
:10233000FFF7FBFE00240AE0601C84B242F210703A
:10234000844204DD01212348FFF7FBFEE5E7224933
:102350002048FFF7C9FE0128EED1002231461D4872
:1023600000F0B8F800240AE0601C84B242F2107059
:10237000844204DD01211748FFF7E3FECDE717494A
:102380001448FFF7B1FE0128EED1002519E0795D70
:10239000104800F0A8F800240AE0601C84B242F261
:1023A0001070844204DD01210A48FFF7CAFEB4E739
:1023B0000A49891C0748FFF797FE0128EDD1681CE0
:1023C00085B24545E3DB01210248FFF7BAFE00BFB5
:1023D000A3E7000000540040010003008200070052
:1023E0002DE9F04385B004460D460026B14604278A
:1023F000DFF8CC80A6884FF6C0700640684600F033
:1024000021FFDDF808802F48B8FBF0F01FFA80F9B3
:1024100046EA0906A68020884FF6FE710840208013
:1024200000262949286888420CD828684000B8FB53
:10243000F0F087B2042F00DA04273E4309F10100CF
:10244000208427E0E8884BF6FF71884206D128688F
:1024500000EB4000B8FBF0F087B209E0286800EB21
:10246000C00101EB0010B8FBF0F087B247F48047E1
:10247000C7F30B0008B947F0010747F400400643D3
:102480004FF4967009FB00F04FF47A7190FBF1F075
:10249000401C2084A683208840F0010020802688EC
:1024A0004FF6F5300640A888698908430643268020
:1024B000A88929890843208105B0BDE8F083000080
:1024C00000127A0040420F00A08601000146088AEF
:1024D000C0B2704712B141F0010102E04FF6FE7345
:1024E00019400182704701827047000010B5102129
:1024F0002C48FFF73CFC01280FD11420FFF7F7F917
:1025000010212848FFF733FC012806D11420FFF7DB
:10251000EEF9FFF725F9012010BD20212148FFF732
:1025200026FC01280FD11420FFF7E1F920211D48D6
:10253000FFF71DFC012806D11420FFF7D8F9FFF79B
:102540000FF90220E8E740211648FFF710FC0128A8
:102550000FD11420FFF7CBF940211248FFF707FCF9
:10256000012806D11420FFF7C2F9FFF7F9F803207C
:10257000D2E780210B48FFF7FAFB01280FD1142086
:10258000FFF7B5F980210748FFF7F1FB012806D1D5
:102590001420FFF7ACF9FFF7E3F80420BCE70020B4
:1025A000BAE700000008014008B50121042000F04E
:1025B00039FE28208DF8030003208DF80200F0205A
:1025C000ADF8000069460348FFF746FB0A20FFF715
:1025D0008EF908BD0008014010B54FF48061024833
:1025E000FFF7D9FB10BD00000008014010B54FF403
:1025F00080610248FFF7CDFB10BD000000080140DC
:1026000010B54FF480710248FFF7C5FB10BD000004
:102610000008014010B54FF480710248FFF7B9FB84
:1026200010BD00000008014008B501210C2000F099
:10263000F9FD10208DF8030003208DF802004FF4FF
:10264000E060ADF8000069460A48FFF705FB4FF46B
:102650007040ADF8000069460748FFF7FDFA4FF4F7
:10266000E0610448FFF797FB4FF470410248FFF721
:1026700092FB08BD00080140000C014008B5012193
:10268000082000F0CFFD0220ADF8000004208DF8F6
:10269000030069460148FFF7DFFA08BD000C01405E
:1026A00010B502210748FFF762FB012800D110BDD9
:1026B00002210448FFF75BFB08B90220F7E700207E
:1026C000F5E70000000C014070B58EB00026002533
:1026D00000F0FEFB45A20121084600F05DFD47A287
:1026E0000121022000F058FD46A20121032000F044
:1026F00053FD46A20121042000F04EFD46A000F04B
:102700000DFE5EE0FFF7CCFF4B49087008460078ED
:1027100002280DD149A2082100F03EFD49A207215F
:10272000032000F039FDFFF761FFFFF769FF1CE0B0
:102730004148007801280ED145A20821022000F06E
:102740002BFD45A20721032000F026FDFFF762FFC5
:10275000FFF742FF09E043A20821022000F01CFD20
:1027600042A20721032000F017FD681CC5B20A2D04
:102770001ADB31480078022804D13FA101A8FDF7F7
:1027800039FD0CE02C480078012804D141A101A8B2
:10279000FDF730FD03E045A101A8FDF72BFD01A8E1
:1027A00000F0BCFD002500BFFFF7A0FE0446042C8E
:1027B00003D1012642A000F0B1FDC820FFF797F831
:1027C00000BF002E9ED000F083FB45A20121032014
:1027D00000F0E2FCC820FFF78AF8FFF711FFFFF7CF
:1027E000FBFE00F047F90EB070BD00003D3D3D20FE
:1027F0004C69676874203D3D3D000000537461746E
:1028000075733A0056616C75653A00004B65793412
:102810003A204261636B00005B4C494748545D209D
:10282000456E746572206C69676874207669657797
:10283000206D6F64650000002E0000204252494761
:1028400048540000322028427269676874290000E9
:102850004441524B202000003120284461726B29F2
:10286000200000004552524F522000004572726F06
:1028700072202020000000005B4C494748545D2036
:102880005374617475733A20425249474854283250
:10289000290000005B4C494748545D205374617423
:1028A00075733A204441524B283129005B4C49470B
:1028B00048545D2052656164204572726F72000059
:1028C0005B4C494748545D2045786974206C6967C2
:1028D00068742076696577206D6F6465000000007C
:1028E00045786974696E672E2E2E000010B503209E
:1028F00000F066F804460A480088844201DA0020A5
:1029000010BD08480088844201DA0120F8E7064833
:102910000088844201DA0220F2E70320F0E7000099
:1029200050000020520000205400002000B587B065
:1029300001214FF4027000F075FC0120ADF8180081
:1029400000208DF81B0006A91B48FFF785F9002021
:1029500001908DF808008DF809004FF46020039075
:102960000020049001208DF8140001A91348FEF7FF
:1029700087FD0523012208211048FEF7A9FD01214A
:102980000E48FEF750FD0D48FEF7FEFD00BF0B4858
:10299000FEF76BFD0028FAD10848FEF705FE00BFE0
:1029A0000648FEF74BFD0028FAD100F021F864201C
:1029B000FEF79DFF07B000BD000C01400024014060
:1029C00070B50446002604B9012400250AE000F091
:1029D0000FF80644601EA84202DD0A20FEF787FFBA
:1029E000681CC5B2A542F2DBB6FBF4F080B270BD44
:1029F00010B501210648FEF7CCFD00BF02210448B6
:102A0000FEF72AFD0028F9D00148FEF721FD10BD90
:102A10000024014000BFFEE710B51548006828B348
:102A20001348046800684069114908600846006856
:102A300020B108460068806948600FE00C48446097
:102A400004E00B484068006A09494860084840684B
:102A500020B107484068006A0028F2D100200449EC
:102A6000087601F0C5FA00F005F800BF10BD0000BF
:102A70005800002030B585B000F02AFA002435E077
:102A80001E4850F8240078B31C480838007EA04245
:102A900006D13E208DF8000020208DF8010004E0D2
:102AA00020208DF800008DF80100002509E0134872
:102AB00050F82400401C415DA81C0DF80010681C53
:102AC000C5B20E4850F82400401C405D08B10E2DE0
:102AD000EDDB0021A81C0DF80010611CC8B26A468D
:102AE000012100F059FB00BF601CC4B20348083844
:102AF000407EA042C4DC05B030BD00006000002074
:102B000010B51548017E407E401E81420BDA124806
:102B1000407E002807DD1048007E401C0E490876E4
:102B2000FFF7A8FF16E00C48407E401E0A49083116
:102B300051F820406CB1E06958B10839E06948604B
:102B400001F056FA0448407E401E03490876FFF71C
:102B500091FF00BF10BD00005800002010B51D48B7
:102B6000407E00B910BD1B48017E083050F821405E
:102B700004B9F7E7606A10B1606A8047F2E716A10E
:102B8000601CFDF761FC10B1FFF746FFEAE7A069A2
:102B900058B1104804600F49A069486000200876C9
:102BA00001F026FAFFF766FF11E000F091F90CA2A0
:102BB0000121022000F0F0FA621C0121032000F044
:102BC000EBFA4FF47A70FEF792FEFFF753FF00BF67
:102BD000C8E70000580000203C2D204261636B00D4
:102BE00056696577204F6E6C7900000000B593B090
:102BF000002250A1012001F0EDF80F90002250A119
:102C0000022001F0E7F81090002250A1032001F00B
:102C1000E1F81190002251A1042001F0DBF812909C
:102C200004210FA801F006F9504A51A1012001F03A
:102C3000D1F80B90504A51A1022001F0CBF80C9032
:102C4000514A52A1032001F0C5F80D90002250A175
:102C5000042001F0BFF80E9004210BA801F0EAF85F
:102C60000B990F9801F0BCF94B4A4CA1012001F0DF
:102C7000B1F807904B4A4CA1022001F0ABF8089044
:102C80004B4A4CA1032001F0A5F809904C4A4DA1F4
:102C9000042001F09FF80A90042107A801F0CAF867
:102CA0000799109801F09CF9484A49A1012001F0C8
:102CB00091F804904A4A4BA1022001F08BF805904C
:102CC000002233A1032001F085F80690032104A817
:102CD00001F0B0F80499119801F082F9454A46A133
:102CE000012001F077F80090454A46A1022001F04A
:102CF00071F80190454A46A1032001F06BF802905B
:102D0000002223A1042001F065F803900421684605
:102D100001F090F80099129801F062F900203F4903
:102D200008600F9848600020087601F061F913B040
:102D300000BD0000566965772044617461000000A1
:102D4000436F6E74726F6C2046616E0056696577D2
:102D5000205468726573686F6C64000053797374F3
:102D6000656D20537461747573000000C9260008F6
:102D70004C69676874000000E934000854656D70A0
:102D80002648756D000000005D1E00084761730055
:102D90003C2D204261636B00091C000846616E20D7
:102DA0004F4E0000D11B000846616E204F46460082
:102DB000351900084175746F204D6F64650000007F
:102DC000F919000846616E2052756E00A51D0008B5
:102DD000476173205468726573686F6C640000000B
:102DE0007D37000854656D70205468726573686F94
:102DF0006C640000A53C0008557074696D650000A6
:102E0000A5160008416C61726D730000C5170008BB
:102E1000426C7565746F6F74680000005800002084
:102E200010B50D48007E002807DD0B48007E401ECF
:102E300009490876FFF71EFE0CE00748846844B194
:102E4000206A30B101F0D4F8002003490876FFF77A
:102E500011FE00BF10BD00005800002070470000A8
:102E600070B5002100230F22C47804B3154C2468E8
:102E700004F4E064C4F5E064210AC1F10403CA402B
:102E8000447804FA03F184781440214309010E4C7C
:102E90000678A155047804F01F050124AC4005789C
:102EA0006D11AD0005F1E025C5F8004109E0047899
:102EB00004F01F050124AC40044D0678761145F856
:102EC000264070BD0CED00E000E400E080E100E091
:102ED00070B500240EE00021204600F0F0F8002537
:102EE00004E0002000F07CF9681CC5B2802DF8DBFE
:102EF000601CC4B2082CEEDB70BD000008B50121D7
:102F0000082000F08FF914208DF8030003208DF8BD
:102F100002004FF48070ADF8000069460A48FEF7E1
:102F20009BFE4FF40070ADF8000069460648FEF7BE
:102F300093FE012211020448FEF72FFF01225102E5
:102F40000148FEF72AFF08BD000C014070B5054698
:102F5000002415E08020204100EA05024FF40071B2
:102F60000E48FEF71AFF012211020C48FEF715FF6A
:102F700000224FF480710948FEF70FFF601CC4B2B5
:102F8000082CE7DB012211020448FEF706FF0022AD
:102F90004FF480710148FEF700FF70BD000C014046
:102FA00010B5012251020A48FEF7F7FE0122110274
:102FB0000748FEF7F2FE00224FF400710448FEF7C6
:102FC000ECFE00224FF480710148FEF7E6FE10BDD2
:102FD000000C014010B500224FF400710648FEF7C6
:102FE000DCFE012211020448FEF7D7FE0122510245
:102FF0000148FEF7D2FE10BD000C014070B5002460
:1030000006E0002500E06D1CB5F57A7FFBD3641C5B
:10301000B4F57A7FF5D3FFF771FFAE2000F0D0F85A
:10302000D52000F0CDF8802000F0CAF8A82000F0EC
:10303000C7F83F2000F0C4F8D32000F0C1F800200A
:1030400000F0BEF8402000F0BBF8A12000F0B8F876
:10305000C82000F0B5F8DA2000F0B2F8122000F035
:10306000AFF8812000F0ACF8CF2000F0A9F8D9200B
:1030700000F0A6F8F12000F0A3F8DB2000F0A0F8A3
:10308000302000F09DF8A42000F09AF8A62000F06F
:1030900097F88D2000F094F8142000F091F8AF20FC
:1030A00000F08EF8FFF714FF70BD10B50246012046
:1030B00000E050430B1EA1F10101FAD110BD70B523
:1030C00005460C4645F0B00000F07AF8102141EAC0
:1030D000141000F075F804F00F0000F071F870BDE6
:1030E0002DE9F04105460E461746721ED206110E16
:1030F0006A1E5206100EFFF7E2FF002409E0A7F156
:103100002001134A02EB0111085D00F069F8601C10
:10311000C4B2082CF3DB721ED206110E6A1E012304
:1031200003EB4202D0B2FFF7CAFF00240BE0A7F185
:103130002001074A02EB011204F10801505C00F083
:103140004FF8601CC4B2082CF1DBBDE8F081000030
:10315000064700082DE9F04780460E4617461D46F3
:10316000002415E0281B411E0A20FFF79EFFB7FB35
:10317000F0F00A21B0FBF1F201FB120000F130097E
:103180003019C1B24A464046FFF7AAFF601CC4B2DC
:10319000AC42E7DBBDE8F0872DE9F04107460E467B
:1031A0001546002407E02A5D3019C1B23846FFF702
:1031B00097FF601CC4B2285D0028F4D1BDE8F081FF
:1031C00010B50446FFF7ECFE7820FFF7BFFE0020A5
:1031D000FFF7BCFE2046FFF7B9FEFFF7FBFE10BD70
:1031E00010B50446FFF7DCFE7820FFF7AFFE402065
:1031F000FFF7ACFE2046FFF7A9FEFFF7EBFE10BD80
:103200007047000029B1064AD2690243044BDA61D3
:1032100004E0034AD2698243014BDA61704700003F
:103220000010024029B1064A92690243044B9A6198
:1032300004E0034A92698243014B9A61704700009F
:103240000010024030B500210022002400232D4D43
:103250006D6805F00C0121B1042905D0082923D19E
:1032600005E0294D056022E0274D05601FE0254D52
:103270006D6805F47012234D6D6805F480340225E5
:1032800005EB92421CB9214D554305600BE01D4DE5
:103290006D6805F400351DB11C4D5543056002E015
:1032A000194D5543056002E0174D056000BF00BF92
:1032B000144D6D6805F0F0010909154D6B5C05684A
:1032C000DD4045600F4D6D6805F4E061090A104D61
:1032D0006B5C4568DD4085600A4D6D6805F46051A2
:1032E000C90A0B4D6B5C4568DD40C560054D6D68D6
:1032F00005F44041890B074D6B5CC568B5FBF3F5E0
:10330000056130BD0010024000127A0000093D0046
:1033100038000020480000207047000070B50446C7
:1033200012E042F2107521781B4800F0E2FB03E046
:10333000681E051E00D105E08021174800F00BFB38
:103340000028F5D000BF641C20780028E9D142F2A3
:1033500010750D21104800F0CCFB03E0681E051E1F
:1033600000D170BD80210C4800F0F5FA0028F5D09E
:1033700042F210750A21084800F0BBFB03E0681E0A
:10338000051E00D1EDE78021034800F0E4FA002893
:10339000F5D000BFE5E700000048004010B500F0A0
:1033A00001F810BD0CB50020019000903348006872
:1033B00040F480303149086000BF3048006800F4B4
:1033C000003000900198401C0190009818B90198B5
:1033D000B0F5A06FF1D12948006800F4003010B1B9
:1033E0000120009001E0002000900098012843D1C6
:1033F0002348006840F01000214908600846006832
:1034000020F0030008600846006840F002000860F1
:103410001A484068194948600846406848600846AC
:10342000406840F4806048600846406820F47C10A2
:1034300048600846406840F4E81048600846006864
:1034400040F08070086000BF0C48006800F0007019
:103450000028F9D00948406820F003000749486077
:103460000846406840F00200486000BF03484068DA
:1034700000F00C000828F9D10CBD0000001002403B
:10348000002002407047000010B51348006840F06B
:1034900001001149086008464068104908400E497B
:1034A0004860084600680E4908400B490860084615
:1034B000006820F4802008600846406820F4FE0080
:1034C00048604FF41F008860FFF768FF4FF000600E
:1034D0000449086010BD0000001002400000FFF821
:1034E000FFFFF6FE08ED00E02DE9F04F95B04FF03C
:1034F000000AD146FFF7ECFC6AA201210846FFF75B
:103500004BFE6DA201210220FFF746FE6DA20121B4
:103510000320FFF741FE6EA201210420FFF73CFECD
:103520006EA0FFF7FBFEA5E078497948FEF75CF84E
:103530001490149800287DD17548006800F006FFAB
:1035400080B2139073497248006800F067FF054627
:1035500000F0FCFE80B20A2190FBF1F201FB1200A8
:103560001FFA80FB6CA206210220FFF715FE022342
:1035700006211846139AFFF7EDFD2E22082102209E
:10358000FFF7AEFD01235A4609210220FFF7E2FDB5
:1035900043220A210220FFF7A3FD5C48006800F0E7
:1035A000D5FE80B212905B495848006800F036FFA3
:1035B000054600F0CBFE80B20A2190FBF1F201FB40
:1035C000120080B2119054A206210320FFF7E4FDFF
:1035D000022306210320129AFFF7BCFD2E220821A8
:1035E0000320FFF77DFD012309210320119AFFF736
:1035F000B1FD25220A210320FFF772FD09F1010028
:1036000000F0FF09B9F1050F1ADB4048006800F02F
:1036100041FD05460E463E48006800F03BFD07466A
:103620003A460B463DA102A8CDE90056FCF7E2FD63
:1036300002A800E005E0FFF771FE4FF0000900BFAF
:1036400009E03EA206210220FFF7A6FD3BA20621CB
:103650000320FFF7A1FDFEF749FF0446042C04D127
:103660004FF0010A37A0FFF759FE4FF4FA70FEF74A
:103670003EF900BFBAF1000F3FF456AFFFF728FC48
:103680003BA201210320FFF787FDC820FEF72FF999
:10369000FEF7B6FFFEF7A0FFFFF7ECF915B0BDE8A7
:1036A000F08F00003D3D3D2054656D702648756DDE
:1036B000203D3D3D0000000054656D703A202D2DE9
:1036C0002E2D430048756D693A202D2D2E2D250095
:1036D0004B6579343A204261636B00005B542648A5
:1036E0005D20456E7465722074656D7065726174DD
:1036F00075726520262068756D6964697479207615
:10370000696577206D6F6465000000002800002067
:103710002400002000002041202020005B54264887
:103720005D2054656D703A20252E3166432C20486B
:10373000756D693A20252E31662525004572726F18
:10374000720000005B5426485D204578697420743F
:10375000656D706572617475726520262068756D7F
:1037600069646974792076696577206D6F64650096
:1037700045786974696E672E2E2E000070B500259D
:103780000026FFF7A5FB14A201210846FFF704FD60
:1037900015A201210220FFF7FFFC17A2012103203F
:1037A000FFF7FAFC17A201210420FFF7F5FC18A08F
:1037B000FFF7B4FD0CE0FEF799FE0446B44203D0D7
:1037C000042C00D1012526466420FEF790F800BFA6
:1037D000002DF0D070BD000054656D7020546872EB
:1037E0006573686F6C647300436F6D666F72743AD3
:1037F0002032302D33304300436F6C643A203C312B
:1038000035430000486F743A203E333543000000D2
:103810005B5448524553485D20566965772074656E
:103820006D70657261747572652074687265736815
:103830006F6C64730000000000B587B001210820A0
:10384000FFF7F0FC01218804FFF7DCFC4FF48060F7
:10385000ADF8180018208DF81B0003208DF81A0011
:1038600006A91E48FEF7F8F94FF40060ADF81800FD
:1038700004208DF81B0006A91848FEF7EDF94FF457
:10388000165002900020ADF80C00ADF80E00ADF817
:103890001000ADF814000C20ADF8120002A9104879
:1038A00000F0B6F827208DF8040001208DF80700FD
:1038B00003208DF8050002208DF8060001A8FFF70F
:1038C000CFFA012240F22551054800F07BF8012192
:1038D000034800F034F807B000BD0000000C0140C0
:1038E0000048004010B540F225510A4800F040F869
:1038F00001280DD1074800F0F7F80749087008467D
:1039000000780649087040F22551024800F008F896
:1039100010BD0000004800404D0000204C00002079
:1039200010B50022002340F66A14A14200D100BF66
:103930000A1201249440A3B2DC43048010BD21B1DB
:10394000828942F40052828104E082894DF6FF733D
:103950001A408281704702460020B1F5007F00D1F5
:1039600000BF13880B400BB1012000E0002070471E
:1039700070B50246002400230025002040F66A1698
:10398000B14200D100BFC1F3421501F01F0301266F
:1039900006FA03F3012D02D19689334006E0022D89
:1039A00002D1168A334001E0968A33400C12012678
:1039B00006FA04F41688344013B10CB1012000E07B
:1039C000002070BDF0B5034600240026002500202D
:1039D00040F66A17B94200D100BF1846C1F342143D
:1039E00001F01F06012707FA06F5012C01D10C3062
:1039F00004E0022C01D1103000E014301AB1076845
:103A00002F43076002E00768AF430760F0BD000086
:103A10002DE9F04786B005460E460024A24600BFB9
:103A2000A1460027B08900B100BF2F462C8A4CF672
:103A3000FF700440F08804432C82AC894EF6F310EA
:103A40000440B08831890843718908430443AC813C
:103A5000AC8A4FF6FF400440B0890443AC8201A811
:103A6000FFF7F0FB1F48874202D1DDF810A001E00C
:103A7000DDF80CA0A88900F4004040B10AEBCA00B0
:103A800000EB0A1031684900B0FBF1F807E00AEBDF
:103A9000CA0000EB0A1031688900B0FBF1F864201D
:103AA000B8FBF0F004012009642101FB1089A8890A
:103AB00000F4004040B1322000EBC900B0FBF1F04F
:103AC00000F00700044308E0322000EB09106421F5
:103AD000B0FBF1F000F00F0004432C8106B0BDE80C
:103AE000F08700000038014001468888C0F30800D4
:103AF0007047C1F3080282807047000010B51A4970
:103B00001A48006800F056FD1FD819491748006888
:103B100000F050FC19D817491748006800F04AFD1A
:103B200013D816491448006800F044FC0DD84FF42F
:103B300080511348FEF72FF94FF400511048FEF75B
:103B400028F900200F4908700CE04FF480510C4810
:103B5000FEF71FF94FF400510948FEF71CF9012048
:103B60000849087010BD00000000A0410C000020B2
:103B70000000F041000020421000002000008C42B4
:103B8000000C01401700002010B51148008840F6D5
:103B9000C41188420DDB4FF480410E48FEF7F9F85E
:103BA0004FF400410B48FEF7F6F801200A4908706F
:103BB0000CE04FF480410748FEF7EDF84FF4004168
:103BC0000448FEF7E6F800200349087010BD000025
:103BD00014000020000C01401800002010B5FEF772
:103BE0005FFD0649087006490648FDF7FDFC032005
:103BF000FEF7E6FE0449088010BD00001600002014
:103C0000100000200C0000201400002010B52248F5
:103C1000007820B12148007808B100240EE01E4849
:103C2000007810B91D48007828B91C48007820B9E0
:103C30001948007808B1012400E00224022C0CD1BC
:103C4000E1011748FEF7A5F821021548FEF7A3F891
:103C500061021348FEF79FF81DE0012C0CD12102F0
:103C60000F48FEF798F861020D48FEF792F8A1029E
:103C70000B48FEF790F80EE04FF480710848FEF70D
:103C80008AF84FF400710648FEF785F84FF480611A
:103C90000348FEF77EF810BD170000201800002032
:103CA000000801402DE9F04788B000250026FFF705
:103CB0000FF925A201210846FFF76EFA2648006891
:103CC0002649B0FBF1F724480068B0FBF1F201FB94
:103CD00012004FF46161B0FBF1F81F480068B0FBBF
:103CE000F1F201FB12003C21B0FBF1F91A48006827
:103CF000B0FBF1F201FB120A43463A4618A103A8B1
:103D0000CDE9009AFCF776FA03AA01210220FFF719
:103D100043FA18A201210420FFF73EFA18A0FFF78A
:103D2000FDFA0CE0FEF7E2FB0446B44203D0042C9B
:103D300000D1012526466420FDF7D9FD00BF002DE6
:103D4000F0D008B0BDE8F0873D3D3D205570746966
:103D50006D65203D3D3D00000000002080510100C8
:103D6000256C756420256C756820256C756D202583
:103D70006C7573004B6579343A204261636B0000C7
:103D80005B5354415455535D2056696577207570D7
:103D900074696D650000000000BFFEE7490050EA4D
:103DA000C12018BF04204A0D18BF40F0010040F2A6
:103DB000FF72B2EB515F08BF40F00200012808BF5C
:103DC0000520704730380A2801D2012070470020B2
:103DD00070470000F0B504460B46154613480078BE
:103DE0001E2801DB0020F0BD104806780078401C3A
:103DF0000E4F387006EB86000D4E06EBC0010C70BE
:103E0000002204E09E5C481C8654501CC2B2985CA0
:103E100008B10F2AF6DB0026481C865400204861B2
:103E20008861C86108624D620846DCE72000002016
:103E30007400002010B50246002012E0002805DDC5
:103E4000431E52F8233052F8204023624B1E834217
:103E500005DD431C52F8233052F82040E361431C37
:103E6000D8B28842EADB10BDFFF7C8F8C820FDF7DA
:103E70003EFDFFF72DF83FA201210846FFF78CF920
:103E800040A201210220FFF787F942A2012103206D
:103E9000FFF782F943A201210420FFF77DF94FF4D7
:103EA0007A70FDF724FDFEF7BFFBFDF763FCFEF71C
:103EB0007BFBFFF7C1FCFEF7E1FBFDF77BFBFEF7A9
:103EC00035FDFDF781FDFEF791FEFEF7D3FD37A02E
:103ED000FFF724FA00260027B04649E0FEF706FB6C
:103EE0000546012D02D1FEF79BFF0DE0022D02D108
:103EF000FEF706FE08E0032D02D1FEF72FFE03E0D9
:103F0000042D01D1FEF788FDFEF7D6F80446E01B2C
:103F1000642805D3274629480068401C27490860C3
:103F2000A01B322808D32646FFF758FEFFF7E6FD10
:103F3000FFF72AFEFFF76AFEA4EB0800C82813D398
:103F4000A0461F48008840F6C41188420ADBFDF7EE
:103F500031FC1CA0FFF7E2F920480068401C1F4913
:103F6000086001E0FDF71EFC0A20FDF7C0FC00BF61
:103F7000B4E7000053797374656D205374617274F3
:103F8000696E670053544D333246313033433854F1
:103F900036000000506C6561736520776169742E8E
:103FA0002E2E000056657220312E30005379737426
:103FB000656D205374617274656400000000002018
:103FC000140000205B414C41524D5D20476173203D
:103FD000646574656374656421000000040000205A
:103FE00000B101B970478161486100BFFAE7000084
:103FF00010B50020184A12681AB1174A1268906961
:1040000007E0154A506800E0006A10B1026A002A11
:10401000FAD1002206E000240F4B083343F8224077
:10402000531CDAB2042AF6DB00220B4B5A76014607
:1040300000BF0BE0084B083343F82210083B5B7EBF
:104040005B1C054C6376C969531CDAB2042A01DA99
:104050000029EFD110BD00005800002010B5002944
:104060000AD00878002807D005487844FCF7CCFD32
:10407000002801D0002010BD0248784410BD000087
:10408000420D00003A0D00000808A0F500114FEAAB
:104090003101704743004FEAD30C4FEA3C0C4340D8
:1040A0001FBF40070CF1605113F0FE4F70471CF02A
:1040B000006F03D100200CF0004170470CF000436A
:1040C00043EA507010B540EACC0000F028FA00BF77
:1040D000000000924FEA0001FFF7D6BF4FF0004109
:1040E0004FF00000A1F500217047000090EA010F99
:1040F00048BF81F0004100F19682421A3CBF801A0D
:1041000089184FEAD0524FF07F4C1CEA410FA2EBC6
:10411000D15318BF9CEA026F00F03B804FF0004C77
:104120004CEA00204CEA012121FA03FC10EB0C0CB4
:104130001ED202F1FF325FEA1C2040EBC25038BFB2
:1041400070471CF07F0F4FEA400C18BFBCF17F4F47
:1041500038BF7047C3F12003994008BF20F0010029
:10416000BCF17F4F38BF7047A0F1C04000F01DBACE
:104170004FEA3C00000A40EBC25028BF1CF0FF0F82
:104180004FEA400CE6D018BFBCF17F4F38BF7047F4
:10419000EAE79CEA026F05D010EA5C0F08BF00F066
:1041A0000040704710B500F0BAF900BF64FBBE3E96
:1041B000401058BFC0F14040491058BFC1F14041C4
:1041C0008142EFF3008070474FF47F0C1CEAD0125D
:1041D0001EBF1CEAD11392EA0C0F93EA0C0F00F0F9
:1041E000858090EA010F48BF42F4807240F4000CD1
:1041F00041F400002CF07F4120F07F4000B5814267
:10420000A2EB03020FF2081CACEB504EC0F1000011
:104210009EF800E04FEA4E0E00FB0EFC38BF49004E
:104220004FEA2C1C02F5FA020CFB0EF34FEACE1EED
:104230004FEA112C4FEAC1210EEB635E42EB2242A2
:104240000EFB0CFC4FEA1C5300FB03114FEA112C30
:104250004FEA01310EFB0CFC4FEADC4C00FB0C1169
:10426000C14228BF09184CEB03335DF804EB10EB97
:10427000410143EBC250B2F57C0F38BF704729D5DE
:1042800012F0F00F1CBF00F1C04000F0004070477A
:10429000008182838485868788898B8C8D8E8F911F
:1042A0009293959697999A9C9D9FA0A2A3A5A7A843
:1042B000AAACAEB0B2B3B5B7B9BCBEC0C2C5C7C96F
:1042C000CCCED1D4D7D9DCDFE2E6E9ECF0F3F7FAD3
:1042D000FE0000004FEA400C0CF1807CBCF17E4FE8
:1042E00028BF7047B0F1C04000F05FB990EA010FFD
:1042F0000CEAD11348BF42F48072624538BF63456F
:1043000007D213F47F0F16D080EA010000F00040BE
:10431000704710B500F003F9097EFC3E00F005B8C7
:1043200080EA010000F00040704780EA010000F0E0
:10433000004000F03AB912F47F0F04BF0248704702
:1043400080EA010000F031B90000C07FC10DD1F159
:104350009E0206DB4FEA002343F0004323FA02F0FB
:104360007047004207D54FEA4001B1F1FE4F02D23B
:104370004FF00000704710B500F0D1F8499224804A
:10438000002070476FEA200070470000B0FA80F309
:1043900010FA03F2C3F19D030AD0D90501EB1220F4
:1043A000530638BF704700F1010008BF20F001003C
:1043B0007047000050EA010C00F113801CF5000F5B
:1043C00058BFBCF5000F01D48842704707D710F5DD
:1043D000000F58BF11F5000F15D48842704789426D
:1043E00070471CF5000F04D5BCF5000FF7D58142CE
:1043F00070474FF0807C1CEB400F38BF1CEB410F27
:1044000001D28142704710B500F089F8922449002A
:104410004FF000504FF08051FFF7CABE4FF47F0CB1
:104420001CEAD0121EBF1CEAD11392EA0C0F93EAC9
:104430000C0F00F0478090EA010F48BF42F48072F1
:104440004FF0004C4CEA00204CEA012102EB030241
:10445000A0FB0113A2F50002002918BF43F00103DD
:104460005B0028BF4FEA330342EB22425FEA132C82
:104470004CEBC2502EBFBCEB436FB2F57C0F7047C4
:104480004FEA036CBCF1004F08BF20F00100B2F509
:104490007C0F38BF70470BD582F0FF0212F5803FCA
:1044A000C8BF704700F1C040D8BF00F0004070475F
:1044B00000F5000C5FEA4C0C48BF7047B0F1C040FB
:1044C00000F073B890EA010F0CEAD11348BF42F430
:1044D0008072624538BF634504D280EA010000F073
:1044E0000040704710B500F01AF800BF8900013E87
:1044F00000F007B800F009B85FEA410C5FEA1C6CF5
:1045000008D080EA010000F050B85FEA400C5FEA92
:104510001C6CF6D14FF00040A0F5800070470EF102
:10452000020E2EF0030E5EF8044B244204D44FEA30
:104530004102B2F17F4F11D84FEA4003B3F17F4FF0
:104540000CD80ED14FEAD07CB2F17F4F0CEB4C0C63
:104550000CF1020C08BF4CEBD17C04E04FF0080CCE
:1045600001E04FEAD17C0CEB4C0324FA03F404F095
:104570000704B4F1040C06D20EEB840CBDE8104025
:104580004CF0010C6047DFE80CF0070802024FF026
:104590000040A0F5800010BD0846420018BFD2F1CF
:1045A000807288BF00F0004010BDFF2141EAD0506A
:1045B000C005704751EA000C00F113801CF5000F94
:1045C00058BFBCF5000F01D48142704707D711F5E1
:1045D000000F58BF10F5000F15D481427047894273
:1045E00070471CF5000F04D5BCF5000FF7D58842C5
:1045F00070474FF0807C1CEB410F38BF1CEB400F25
:1046000001D28842704780EA010081EA000180EA15
:104610000100FFF7F8BE000090EA010F48BF81F0EB
:1046200000413FF56AAD421A04D882F00042A0EB87
:10463000020011444FEAD0524FF07F4C1CEA410F68
:10464000A2EBD15318BF9CEA026F4AD04FF0004C46
:104650004CEA00204CEA012121FA03FCB0EB0C0CDF
:104660000FD412F0FE0F36D05FEA4C001DD50012B9
:1046700040EBC25038BF70471CF03F0F18BF704767
:104680000BE0A2F101025FEA1C2040EBC25038BFF0
:1046900070471CF07F0F18BF7047C3F1200399408B
:1046A00014BF401E20F00100704780084FEA12231B
:1046B00008BF7047B0FA80FCA2EB0C02CCF1280CCA
:1046C00060FA0CF093EA122F04BF00EBC25070475F
:1046D0004FEAC3707047130A5FEADC1008BF7047E7
:1046E000F6E79CEA026F04D010EA5C0F08BF0020D6
:1046F000704710B5FFF713FF40DFF63E81F0004032
:104700007047FBF7E8BF0000000000000000000059
:10471000000000000000000000F8000000000000A1
:1047200000333000000000100C06100C06000000E2
:1047300000000000000040C07840C0784000043F06
:1047400004043F040400007088FC083000000018D6
:1047500020FF211E0000F008F000E01800000021FA
:104760001C031E211E0000F00888700000001E219E
:1047700023241927211010160E000000000000004D
:10478000000000000000000000E01804020000002B
:1047900000071820400000020418E000000000405C
:1047A000201807000000404080F0804040000202D6
:1047B000010F01020200000000F0000000000101F2
:1047C000011F01010100000000000000000080B096
:1047D0007000000000000000000000000000000168
:1047E0000101010101010000000000000000003093
:1047F000300000000000000000008060180400602D
:1048000018060100000000E010080810E000000F8A
:10481000102020100F00001010F8000000000020F1
:10482000203F202000000070080808887000003039
:1048300028242221300000300888884830000018E1
:10484000202020110E000000C02010F800000007FA
:104850000424243F240000F8088888080800001970
:10486000212020110E0000E0108888180000000FA1
:10487000112020110E0000380808C8380800000078
:10488000003F000000000070880808887000001CCD
:10489000222121221C0000E010080810E000000086
:1048A000312222110F00000000C0C00000000000F3
:1048B0000030300000000000008000000000000018
:1048C000806000000000000080402010080000010F
:1048D00002040810200040404040404040000404D2
:1048E000040404040400000810204080000000209C
:1048F000100804020100007048080808F0000000D9
:10490000003036010000C030C828E810E000071869
:10491000272423140B000000C038E0000000203CD6
:1049200023020227382008F8888888700000203F7A
:10493000202020110E00C030080808083800071891
:1049400020202010080008F808080810E000203F88
:10495000202020100F0008F88888E8081000203F69
:1049600020202320180008F88888E8081000203F3D
:10497000200003000000C0300808083800000718B5
:104980002020221E020008F808000008F808203F36
:10499000210101213F20000808F80808000000203C
:1049A000203F2020000000000808F8080800C08010
:1049B00080807F00000008F888C028180800203F89
:1049C00020012638200008F8080000000000203FE1
:1049D00020202020300008F8F800F8F80800203FD8
:1049E000003F003F200008F830C00008F808203FD2
:1049F000200007183F00E01008080810E0000F1022
:104A0000202020100F0008F808080808F000203FB8
:104A1000210101010000E01008080810E0000F1853
:104A2000242438504F0008F8888888887000203F78
:104A30002000030C30200070880808083800003877
:104A4000202121221C00180808F80808180000007E
:104A5000203F2000000008F808000008F808001FA8
:104A6000202020201F000878880000C83808000097
:104A700007380E010000F80800F80008F800033CB1
:104A80000700073C03000818688080681808203079
:104A90002C03032C30200838C800C8380800000058
:104AA000203F2000000010080808C83808002038FF
:104AB000262120201800000000FE02020200000053
:104AC000007F40404000000C30C0000000000000AB
:104AD00000010638C00000020202FE000000004093
:104AE00040407F00000000000402020204000000B9
:104AF00000000000000000000000000000008080B6
:104B0000808080808080000202040000000000009D
:104B1000000000000000000080808080000000197C
:104B2000242222223F2008F8008080000000003F5D
:104B3000112020110E000000008080800000000E77
:104B4000112020201100000000808088F800000E55
:104B5000112020103F200000808080800000001F76
:104B6000222222221300008080F0888888180020EA
:104B7000203F202000000000808080808000006BAB
:104B800094949493600008F8008080800000203F97
:104B9000210000203F2000809898000000000020A5
:104BA000203F20200000000000809898000000C0F6
:104BB0008080807F000008F8000080808000203F17
:104BC00024022D302000000808F80000000000201A
:104BD000203F202000008080808080808000203F57
:104BE00020003F20003F8080008080800000203F28
:104BF000210000203F200000808080800000001FF6
:104C0000202020201F00808000808000000080FF86
:104C1000A12020110E000000008080808000000E86
:104C2000112020A0FF8080808000808080002020D4
:104C30003F21200001000000808080808000003340
:104C4000242424241900008080E0808000000000DB
:104C5000001F202000008080000000808000001FD6
:104C6000202020103F208080800000808080000174
:104C70000E300806010080800080008080800F30A8
:104C80000C030C300F00008080008080800000202A
:104C9000312E0E3120008080800000808080808155
:104CA0008E701806010000808080808080000021C6
:104CB000302C2221300000000000807C0202000025
:104CC0000000003F404000000000FF000000000026
:104CD0000000FF0000000002027C80000000004095
:104CE000403F000000000006010102020404000031
:104CF000000000000000000002400000000000A0D2
:104D00000000000005400000000000C80000000096
:104D10000C4000000000409C000000001940000012
:104D20000020BCBE0000000034400000BFC91B8E44
:104D300000000004B5400000504BCFD06607E2CF22
:104D4000010000006C4100003E8251AADFEEA73452
:104D500001000000D9420000DCB5A0E23A301F9704
:104D6000FFFFFFFFB4450000FD25A0C8E9A3C14F28
:104D7000FFFFFFFFFF3F0000000000800000000079
:104D8000FF3F00000000008000000000C84D000848
:104D9000000000205800000028010008204E0008F4
:104DA00058000020300B0000440100081C000000E7
:104DB00043000000F8FFFFFF0C0000000E000000A1
:104DC0000F0000002E0000000000000000000000A6
:104DD00001000000000000000000000000000000D2
:104DE00000000000000000000000000000000000C3
:104DF0000000000000000000FC08010000000000AE
:104E00000000000001020304010203040607080970
:104E10000204060800000000F4012003E80300007B
:04000005080000ED02
:00000001FF
