:020000040800F2
:10000000900B0020B50100084D2C0008AD2200081F
:1000100011280008591C0008D53B0008000000000A
:10002000000000000000000000000000093100088E
:100030005D1C000800000000F12F00087532000868
:10004000CF010008CF010008CF010008CF01000850
:10005000CF010008CF010008CF010008CF01000840
:10006000CF010008CF010008CF010008CF01000830
:10007000CF010008CF010008CF010008CF01000820
:10008000CF010008CF010008CF010008CF01000810
:10009000CF010008CF010008CF010008CF01000800
:1000A000CF010008CF010008CF010008CF010008F0
:1000B000CF010008CF010008CF010008CF010008E0
:1000C000CF010008CF010008CF010008CF010008D0
:1000D000CF010008CF010008CF0100082537000834
:1000E000CF010008CF010008CF01000800F002F89E
:1000F00000F050F80AA090E8000C82448344AAF172
:100100000107DA4501D100F045F8AFF2090EBAE86F
:100110000F0013F0010F18BFFB1A43F0010318473B
:10012000A44A0000C44A0000103A24BF78C878C12D
:10013000FAD8520724BF30C830C144BF04680C60ED
:10014000704700000023002400250026103A28BF35
:1001500078C1FBD8520728BF30C148BF0B60704739
:10016000662904F0EA81642900F08280752900F094
:100170007F80732900F01584002070471FB500F0C0
:1001800015FC04000020002103F084FEE0601FBD88
:1001900010B510BD00F00AFD1146FFF7EFFF03F0A8
:1001A00081FD00F028FD03B4FFF7F2FF03BC00F06F
:1001B0006BFD00000948804709480047FEE7FEE75D
:1001C000FEE7FEE7FEE7FEE7FEE7FEE7FEE7FEE707
:1001D00004480549054A064B70470000793200087B
:1001E000ED00000890050020900B002090070020F3
:1001F000900700200FB41CB5074B06AA7B44694644
:100200000090059800F0A3FB0020694600F0B2FBC7
:100210001CBC5DF814FB00007507000070B50C46AF
:100220000546012A05D02878800600D5EA69002312
:1002300002E0012305E05B1C934202D2E05C00284F
:10024000F9D1A869E618C01AA861286A184428627A
:100250002846AFF3008004E0D5E9012114F8010B32
:100260009047B442F8D32846AFF3008070BD000039
:100270002DE9F0410646002410687529314616A57F
:1002800010D0AFF30080002802DA404213A507E047
:1002900031688A0701D512A502E0490704D511A5E6
:1002A000012401E0AFF3008000210A2206F12407B7
:1002B00009E0B0FBF2FCB0FBF2F302FB1C003030B3
:1002C00078541846491C0028F3D123462A46304664
:1002D000BDE8F04100F0CDB8000000002D000000A6
:1002E0002B000000200000002DE9F0474FF0000A2D
:1002F00089460446C0F820A02046E16888470028C7
:1003000076D0252806D0D4E901219047206A401CE8
:100310002062F1E7E168204600268847C4F81CA067
:1003200005460027C4F818A02A2D09D0284603F056
:1003300067FC38B304EB8708303DC8F8185019E063
:1003400059F8041B204604EB87029161E168884755
:10035000012F054618D1E069002820DA26F0200692
:100360001DE0D8F8180000EB800005EB40003038A5
:10037000C8F818002046E1688847054603F040FCAD
:100380000028EED1012F0AD02E2D08D12046E16899
:1003900088477F1C0546022F46F02006C4DBA06973
:1003A000002803DA404246F00106A061F00701D0C0
:1003B00026F010066C2D0AD0682D08D04C2D39D0AF
:1003C0006A2D35D0742D35D07A2D33D016E0E16802
:1003D0002F4620468847B84205460AD16C2F27D0C1
:1003E0004FF48060E168064320468847054605E0F3
:1003F00027E06C2F1AD04FF4807006430DB3A5F19F
:100400004100192802D8203546F400664A4629469C
:10041000204626604E46FFF7A3FE80B101280BD090
:10042000F61D26F0070000F1080965E74020E4E723
:100430008020D7E70020D5E706F104095CE72846CD
:1004400061E7206ABDE8F08730B505460B462A46CD
:1004500013F8014B12F8010B08B1A042F8D01CB1FF
:10046000002802D06D1CF1E7284630BD7047704768
:1004700070472DE9F0470D4699469246044600F133
:1004800024080168880604D5E06921F01001216084
:1004900000E00120A84201DD471B00E00027A16920
:1004A0007A1902EB0900081AA0612078C00602D46C
:1004B0002046AFF30080002608E0D4E901211AF8B5
:1004C00006009047206A401C761C20624E45F4DBF3
:1004D0002078C0060AD52046AFF3008006E0D4E9B4
:1004E000012130209047206A401C2062381EA7F16D
:1004F0000107F4DC07E0D4E9012118F80500904772
:10050000206A401C2062281EA5F10105F3DC20466C
:10051000AFF300802078000602D50220BDE8F08706
:100520000120FBE770472DE9FF4F0C461E464FF0B8
:10053000FF378BB0D2E90001DDF860800A908A466F
:10054000C1F30A5505B93D46002108464FF00000A9
:10055000BAF1000F00F4400005DA00EB80004FF420
:10056000400101EA50004FEA9059B9F1010F00DD56
:10057000B9460A9850EA4A000ED044F61050A5F247
:10058000FF3545432F14B8F1000F1ED07542291EC8
:100590001EDDC9F100021CE0B8F1010F4FF00000B0
:1005A00001D0302103E0F24305E02154401CB04269
:1005B000FBDB30460022002121540B99C1F8088052
:1005C000C1E900200FB0BDE8F08FBD1B6D1CDEE758
:1005D0004A4600DA694206A800F072FA06AB93E8D0
:1005E000070003AB83E8070050460A9900F053FB6D
:1005F0008DE80700A0F500501F3800900398002DEB
:100600000ADD42F21F014A460844002303A9039071
:10061000684600F0BCFD09E0A0F500504A461F38CE
:10062000002303A90390684600F0C6FD8DE807008B
:100630000004000C03D04FF0FF30410800E01046EA
:10064000B8F1000F03D00022009215461EE0751E7F
:1006500005D400F0AFF9303262556D1EF9D5B346BE
:100660000122084302D000227F1C04E020783028B9
:1006700001D100227F1E002A099784D01DE0112D90
:1006800007DA00F097F9303262556D1C50EA01022A
:10069000F5D1084302D00098C8B10EE00021681ED1
:1006A00005E0235C625C63542254401E491C814275
:1006B000F7DBAB46A81B401E0990002004F80B0096
:1006C0000B98099AC0F80880C0E9002B7AE7112638
:1006D0004FF0000857E72DE9F04F88460446D21D39
:1006E00022F0070191B0D1E90001CDE90A0103F040
:1006F00073FA02460B98C00F01D02D2007E0206846
:10070000810701D52B2002E0202101EAC000032A45
:10071000099001D0072A05DB03464146204600F038
:100720008FF90BE12078800601D5E06900E0062012
:10073000B8F1650F814606D0B8F1660F18D0B8F150
:10074000670F70D131E00020B9F1110F009001DB8B
:10075000112301E009F101030AAA01A90CA8FFF77E
:10076000E2FEDDE90C70002609F10105834647E051
:1007700001204B4600904FF000470AAA01A90CA89F
:10078000FFF7D1FEDDE90DB00C995D46002610B9EA
:1007900009F101000D18B9EB050003D4C0F1FF36D3
:1007A00009F10105A5EB09002BE0B9F1010F01DA10
:1007B0004FF001090020B9F1110F0090484601DD0A
:1007C000112300E003460AAA01A90CA8FFF7ABFE1B
:1007D000DDE90C704D4600268346207800070AD4D8
:1007E000AB4500DA5D4601A8012D04DD411911F881
:1007F000011C302907D04F4502DA17F1040F04DA43
:10080000012082460FE06D1EEEE7002F02DCED1B9B
:100810003E4403E0781CA84200DD7D1CB81B00F1BB
:10082000010A4FF000472078000703D4AA4501DBF6
:100830004FF0FF3A0021B7F1004F0DF143088DF85A
:10084000431024D002202B23002F01DA7F422D23D6
:100850000A21021EA0F1010000DC5FB197FBF1FC50
:1008600097FBF1F201FB1C7C17460CF1300C08F8E9
:1008700001CDEEE7A8F1010003702188090501D53B
:10088000452100E06521A0F1010800F8011C09984C
:100890000FA9A1EB0807FF1D00B10120411901EBD1
:1008A000EA70A1693844081A401EA0612078C00689
:1008B00002D42046AFF30080099828B1D4E9012181
:1008C0009047206A401C20622078C00622D520462E
:1008D000AFF300801EE0002E04DBB34502DD01A86B
:1008E000805D00E03020D4E901219047206A401C5F
:1008F0002062761CAAF101005FEA000A0AD100F02A
:1009000055F8C0680168405CD4E901219047206A2D
:10091000401C2062281EA5F10105DCDC07E0D4E9BB
:10092000012118F8010B9047206A401C2062381EF4
:10093000A7F10107F3DC2046AFF30080032011B0DC
:1009400041E6000001694A1C02610878704700B561
:100950008FB0CDE901310021059105497944CDE9F8
:10096000031011466846FFF7BFFC0FB000BD000042
:10097000E5FFFFFF0A6802F8010B0A60704710B537
:10098000436913B1AFF3008001E0FFF747FC01209A
:1009900010BD127800F124010A7000224A70012271
:1009A000EDE711684FF0FF32E9E7000000487047BB
:1009B0005005002030B5B0F10A024FEA900E71F1F7
:1009C00000034EEA817EB0EB0E0061EB91014FEA2D
:1009D000101E4EEA017E10EB0E0041EB11114FEAA2
:1009E000102E4EEA016E10EB0E0041EB11214FEA82
:1009F000104E4EEA014E10EB0E0041EB1141401833
:100A000041F100014FEAD00040EA41704FEAD101C4
:100A100010EB80054FEA810444EA907444EB010432
:100A20006D1944EB0404521BA3414FF0000348BF6F
:100A30000A3200D530BD401C41F1000130BD00003C
:100A40002DE9F0411F46044603260168072A01F4F8
:100A5000006004DB08B116A505E016A503E008B1A7
:100A600015A500E015A521F010002060A069C01EAA
:100A7000A0610FB1401EA0612046AFF300804FB1CE
:100A8000D4E9012138469047206A401C2062C01CEE
:100A9000206206E0206AFAE7D4E9012115F8010B8B
:100AA0009047761EF8D22046AFF30080BDE8F08173
:100AB0004E414E006E616E00494E4600696E660002
:100AC0002DE9F047814616468AB0354878440DC86E
:100AD0008DE80D0032487844801C03AC0DC884E8D2
:100AE0000D0041F69B300844372190FBF1F290FB5A
:100AF000F1F5A5F1800501FB12041B3C02D564420F
:100B0000012000E00020DFF898A080460027FA448A
:100B1000AAF1BE0A0EE0E0070AD03246684607EBAB
:100B2000470101230AEB810100F046FB8DE8070035
:100B300064107F1C002CEED1194F7F44AE3F19E0AA
:100B4000E80715D007EB04100DF1180A90E80E0025
:100B50008AE80E00C068F04201D198190890324628
:100B6000012306A903A800F027FB03AB83E80700D5
:100B70006D10641C002DE3D14FF00103324669462D
:100B8000B8F1000F03A802D000F001FB01E000F073
:100B900013FBC9E90001C9F808200AB0BDE8F087D5
:100BA000DC40000000487047300500207546FFF724
:100BB000F9FFAE4605006946534620F0070085461A
:100BC00018B020B5FFF704FBBDE820404FF0000649
:100BD0004FF000074FF000084FF0000B21F0070125
:100BE000AC46ACE8C009ACE8C009ACE8C009ACE868
:100BF000C0098D46704710B50446AFF3008020460B
:100C0000BDE81040FFF7CFBA4FF0013C50F8042B7D
:100C100051F8043B9A4221D1A2EB0C03934313EA0F
:100C2000CC1317D150F8042B51F8043B9A4215D13C
:100C3000A2EB0C03934313EACC130BD150F8042B13
:100C400051F8043B9A4209D1A2EB0C03934313EAF7
:100C5000CC13DBD04FF00000704700BFD01A01BAB0
:100C6000B1FA81F101F0180122FA01F0CB40C1F193
:100C70002001DBB2C0B2C01A2CFA01F3D11A9143A1
:100C800011EAC311E6D1704701491820ABBEFEE757
:100C90002600020070475FEA400C08BF91F0000F89
:100CA0004FEA8C234FEAC12243EA51514FEA1C50CC
:100CB00018BF00F5F0404FEA300018BF41F0004186
:100CC0005FEA6C5C00F02980BCF1FF3F08BF40F098
:100CD00080407047130C06BF12044FF0100C4FF009
:100CE000000C130E04BF12020CF1080C130F04BF0A
:100CF00012010CF1040C930F04BF92000CF1020CD2
:100D0000D30F04BF52000CF1010C11464FF000024A
:100D1000A0F11F00A0EB0C00704711F0004F08BFBE
:100D2000704731F000413FF4D5AF0B0C06BF09040A
:100D30004FF0100C4FF0000C0B0E04BF09020CF129
:100D4000080C0B0F04BF09010CF1040C8B0F04BF3E
:100D500089000CF1020CCB0F04BF49000CF1010C0F
:100D6000CCF12003A0EB0C0022FA03F302FA0CF200
:100D700041EA030100F10100704720F07F4C80EA56
:100D8000030023F07F47ACEB070303F57C5300F02F
:100D9000004003F1FF032DE980494FEA154B09B4E8
:100DA0004FEA144325EA0B4E24EA03480FF20426C7
:100DB00006EB132749083E785FEA320203FB066719
:100DC000C7F5000707FB06F64FEA54374FEAD64649
:100DD00006F1020607FB066CCCF1005C4FEA1C47EB
:100DE0002CEA074C07FB06F40CFB06F504EB154652
:100DF0004FEA961634BF00204FF000404FEAD1373B
:100E000006FB07FC4FEA1C4C0CFB0BF7D21B03FB49
:100E10000CF761EB07010CFB0EF7B0EB074072EB30
:100E200017420CFB08F734BFA2EB0742B2EB0742B4
:100E300061EB17414FEA0C444FEA910706FB07FCB0
:100E40004FEA1C4C0CFB0BF7B0EBC74072EB573270
:100E500003FB0CF734BFA2EBC742B2EBC74261EB16
:100E600057310CFB0EF7B0EBC70072EB57720CFB5F
:100E700008F734BFA2EBC702B2EBC70261EB5771B0
:100E8000039F4FEA816141EA921104EBCC044FEADF
:100E9000D1374FEA826206FB07FC42EA90124FEA22
:100EA00080604FEA1C4C0CFB0BF7D21B03FB0CF7CA
:100EB00061EB07010CFB0EF7B0EB074072EB17423A
:100EC0000CFB08F734BFA2EB0742B2EB074261EB21
:100ED00017414FEA8C554FEA910704EB9C2406FB1F
:100EE00007FC4FEA1C4C0CFB0BF7B0EBC74072EB56
:100EF000573203FB0CF734BFA2EBC742B2EBC74239
:100F000061EB57310CFB0EF7B0EBC70072EB577279
:100F10000CFB08F734BFA2EBC702B2EBC70261EBD0
:100F2000577115EB4C254FEA816141EA92114FEA66
:100F300082624FEAD13742EA901206FB07FC44F185
:100F400000044FEA80604FEA1C4C0CFB0BF7D21BED
:100F500003FB0CF761EB07010CFB0EF7B0EB07404E
:100F600072EB17420CFB08F734BFA2EB0742B2EB5F
:100F7000074261EB174115EB1C154FEA813141EA3D
:100F800092414FEA823242EA90424FEA80304FEA81
:100F90000C7644F1000448EA03434EEA0B484FF054
:100FA000000EB2EB080C71EB030724BF6246394612
:100FB0004EEB0E0E4FF0000B0018524149414BEB27
:100FC0000B0BB2EB080C71EB03077BF1000B24BF9A
:100FD000624639464EEB0E0E4FF0000B00185241A0
:100FE00049414BEB0B0BB2EB080C71EB03077BF1A8
:100FF000000B24BF624639464EEB0E0E51EA020743
:1010000018BF46F0010616EB0E7655F1000254F1BA
:10101000000103D5BDE88901BDE80088BDE889016C
:10102000BDE80048B619524141EB0101A3F10103AB
:10103000704780807F7E7D7C7B7A79787776767545
:101040007473727171706F6E6E6D6C6C6B6A6A69BD
:101050006868676666656464636362616160605F57
:101060005F5E5E5D5D5C5C5B5B5A5A5959585857D0
:101070005756565555555454535352525251515038
:1010800050504F4F4F4E4E4D4D4D4C4C4C4B4B4B8B
:101090004A4A4A49494948484847474747464646D1
:1010A000454545444444444343434342424242410C
:1010B0004141002B9C4630D477002BD01CB54FEA21
:1010C000370703B44FF010004FF01001BAF1000FD2
:1010D00006D0BCF1000FDCBF40F0080040F0080172
:1010E0004FF000000FBCBDE810400BF1010BBBF14D
:1010F000010F08BF5FEA170722BF12F1010211F1C9
:1011000001014FF0004143F1000300F0004043EAC9
:1011100000007047F9D35708D0E746EA064613F1B6
:10112000400F4FEA16461FDD13F1200FDFBF1643B5
:101130000A46002120335B42BED0C3F1200746EAB5
:10114000064602FA07F74FEA164646EA0706C3F1D3
:10115000200722FA03F201FA07F721FA03F14FF010
:10116000000342EA0702A7E746EA020646EA064605
:101170004FEA164646EA0106BCBF46EA0646360C6A
:101180004FF000034FF000024FF0000194E72DE90B
:10119000804C9A46934670B491E8380007C831EA0B
:1011A000400C48BF34EA430C03D5FFF7E6FDFFF7D8
:1011B00080FFF0BCBDE8008C2DE9804C9A46934638
:1011C00070B491E8380007C810F0804F08BF13F0E2
:1011D000804F03D100F005F8FFF76BFFF0BCBDE8CE
:1011E000008C20F07F4780EA030023F07F4C07EB60
:1011F0000C03A3F57C5300F00040A3F1FE0392F032
:10120000000F00F0B38095F0000F00F077802DE91B
:1012100001494FEA11404FEA144621EA004800FB19
:1012200006FC24EA064708FB06F607FB08F800FB65
:1012300007F718EB06484CEB164C4FEA124B18EB2D
:1012400007484FEA15464CEB174022EA0B4E0BFBC2
:1012500006FC25EA06470EFB06F607FB0EFE0BFB17
:1012600007F71EEB064E4CEB164C4FF000061EEB3C
:10127000074E4CEB174B18EB0B0840F1000018EB36
:101280000E0B58EB000840F100008F1A4FF00001E0
:101290003CBFC943661B14BFB5EB040C00213CBF27
:1012A000C943F61B4FEA17444EEA8E0E27EA04455F
:1012B0004FEA1C4704FB07622CEA074C05FB07F7C3
:1012C0000CFB05F604FB0CFC16EB074642EB174241
:1012D00016EB0C4642EB1C421BEB060658EB0202D7
:1012E000414146EA9E0601D5BDE80189B619524141
:1012F00041EB0101A3F10103BDE801894FEA144567
:101300004FEA114724EA054621EA074C05FB07F49A
:1013100006FB07F70CFB06F105FB0CFC11EB074184
:1013200044EB17444FEA124711EB0C4144EB1C44C9
:1013300022EA074C05FB07F206FB07F70CFB06F653
:1013400005FB0CFC16EB074642EB174216EB0C466E
:1013500042EB1C456A1854F1000148BF7047B619AA
:10136000524141EB0101A3F10103704795F0000FD9
:1013700037D04FEA11424FEA144721EA024624EAE5
:10138000074C02FB07F106FB07F70CFB06F402FB18
:101390000CFC14EB074441EB17414FEA154714EBE3
:1013A0000C4441EB1C4125EA074C02FB07F506FB08
:1013B00007F70CFB06F602FB0CFC16EB074645EBA9
:1013C000174516EB0C4645EB1C42121951F1000172
:1013D00048BF7047B619524141EB0101A3F1010327
:1013E00070474FEA14454FEA114724EA054621EABF
:1013F000074C05FB07F106FB07F70CFB06F24FF065
:10140000000605FB0CFC12EB074241EB174112EB07
:101410000C4251EB1C4148BF7047921841EB01014F
:10142000A3F10103704721B1826842F0010282609A
:1014300003E0826822F001028260704701460020CA
:101440008A6802F004020AB1012000E0002070471F
:101450000146C86C80B270470246002013680B40FA
:101460000BB1012000E000207047014600208A688F
:1014700002F008020AB1012000E0002070470000DD
:1014800030B502460020002350680F4C20400D79F3
:101490000C6844EA05242043506090680B4C2040BF
:1014A000D1E902542C434D7944EA4504204390602D
:1014B000D06A20F470000C7C641EE4B2234340EA3E
:1014C0000350D06230BD0000FFFEF0FFFDF7F1FFDA
:1014D000F0B504460D4600200021092D11DDE0681D
:1014E000A5F10A0606EB4607072606FA07F1884328
:1014F000A5F10A0606EB460603FA06F10843E0608A
:101500000CE0206905EB4507072606FA07F188433A
:1015100005EB450603FA06F108432061072A0FDAB6
:10152000606B561E06EB86071F2606FA07F18843F6
:10153000561E06EB860605FA06F10843606322E0B4
:101540000D2A0FDA206BD61F06EB86071F2606FA38
:1015500007F18843D61F06EB860605FA06F1084315
:10156000206310E0E06AA2F10D0606EB86071F2655
:1015700006FA07F18843A2F10D0606EB860605FA86
:1015800006F10843E062F0BD816841F00801816026
:10159000704721B1826842F4A002826003E0826851
:1015A00022F4A00282607047816841F004018160EA
:1015B0007047000008B50121082001F02BFDC02074
:1015C000ADF8000010208DF8030003208DF8020014
:1015D0006946064800F029FC4021044800F0BBFCA5
:1015E0008021024800F0B7FC08BD0000000C01405B
:1015F00010B58021084800F0ACFC4021064800F0FE
:10160000AAFC00F055FE4021034800F0A2FC802116
:10161000014800F0A0FC10BD000C014010B5802175
:10162000064800F098FC4021044800F094FC00F0CB
:101630003FFE4021014800F08CFC10BD000C014031
:1016400038B500248020ADF8000048208DF8030054
:101650006946164800F0E9FB002516E06006040E16
:101660004021124800F077FC00F022FE80210F4854
:1016700000F066FC08B144F0010440210B4800F082
:1016800068FC00F015FE681CC5B2082DE6DB802062
:10169000ADF8000010208DF8030003208DF8020043
:1016A0006946024800F0C1FB204638BD000C0140ED
:1016B00070B5044600251DE004F0800020B18021B3
:1016C0000E4800F048FC03E080210C4800F041FC8B
:1016D0006006040E00F0ECFD4021084800F03BFCE1
:1016E00000F0E6FD4021054800F033FC00F0E0FD8D
:1016F000681CC5B2082DDFDB70BD0000000C014086
:1017000010B58021094800F026FC4021074800F070
:1017100022FC00F0CDFD8021044800F01AFC00F00E
:10172000C7FD4021014800F014FC10BD000C014031
:1017300010B58021074800F00CFC4021054800F05E
:101740000AFC00F0B5FD8021024800F004FC00F026
:10175000AFFD10BD000C014038B5002500248020ED
:10176000ADF8000048208DF803006946184800F0E5
:101770005CFB8021164800F0EEFB4021144800F08D
:10178000EAFB00F095FD03E0601C84B200F090FDE0
:1017900080210F4800F0D4FB08B1642CF4DB642CEA
:1017A00000DB012540210A4800F0D3FB00F080FD5A
:1017B0008020ADF8000010208DF8030003208DF884
:1017C00002006946024800F030FB284638BD0000A0
:1017D000000C014038B512A000680090FFF7EAFE47
:1017E000322000F03CFA00F0C5F8142000F037FA7F
:1017F00003226946BE2000F0DDF808B1012038BDA3
:101800000A2000F02CFA00F035F80446FF2C04D032
:1018100004F0080008B10020F1E70120EFE7000024
:101820000800000070B506460D4606B10DB901204E
:1018300070BDFFF765FF7120FFF73AFFFFF78CFFE0
:1018400018B1FFF775FF0120F2E700240CE0FFF765
:10185000F7FE3055681EA04202D1FFF7DFFE01E01F
:10186000FFF7C6FE601CC4B2AC42F0DBFFF760FFBE
:101870000020DDE708B5002000900022114671200D
:1018800000F098F808B1FF2008BD01216846FFF775
:10189000C9FF08B1FF20F7E79DF80000F4E700005A
:1018A0002DE9FC4704460D460020009001900026DB
:1018B000002704B115B90120BDE8FC8700221146BC
:1018C000AC2000F077F808B10120F5E7502000F0D7
:1018D000C6F900F056F808B10120EDE70621684688
:1018E000FFF7A0FF08B10120E6E79DF8000000F037
:1018F000800008B10120DFE79DF8010000039DF89A
:10190000021040EA01109DF8031040EA11169DF8FC
:1019100003000007000B9DF8041040EA01209DF829
:10192000051040EA0107304602F04CFC81460E49A2
:1019300002F090FC80464FF0934102F061FB28607A
:10194000384602F03FFC8246084902F083FC81469B
:101950004FF0934102F054FB8046054902F078FDB8
:1019600020600020A8E700000000C84200004843B3
:101970000000484210B500221146BA2000F01AF8C3
:1019800010BD70B5002510E0FFF774FF0446FF2C72
:1019900001D1012070BD04F0010008B90020F9E771
:1019A000012000F05CF9681C85B2B5F5FA7FEBDB2D
:1019B0000120EFE72DE9F04107460D461646FFF7F7
:1019C0009FFE7020FFF774FEFFF7C6FE20B1FFF701
:1019D000AFFE0120BDE8F0813846FFF769FEFFF752
:1019E000BBFE18B1FFF7A4FE0120F3E700240BE0D3
:1019F000285DFFF75DFEFFF7AFFE18B1FFF798FE19
:101A00000120E7E7601CC4B2B442F1DBFFF790FEAF
:101A10000020DFE770B592B00025002601F050F9F4
:101A200017A20121084601F0AFFA194819A102686E
:101A30000DA8FEF7DFFB0DAA0121022001F0A4FA98
:101A400019A20121042001F09FFA114819A102688E
:101A50006846FEF7CFFB684601F058FB0CE000F04B
:101A60002FFC0446B44203D0042C00D101252646A5
:101A7000642000F0F4F800BF002DF0D012B070BD6B
:101A80003D3D3D20416C61726D73203D3D3D000048
:101A900004000020546F74616C20416C61726D739E
:101AA0003A20256C750000004B6579343A2042617C
:101AB000636B00005B5354415455535D20546F7465
:101AC000616C20616C61726D733A20256C75000049
:101AD00010B500F027F8322000F0C1F800F01AF835
:101AE00010BD000008B50121042001F093FA102078
:101AF0008DF803000420ADF8000003208DF80200EB
:101B00006946034800F091F900F004F808BD0000B0
:101B10000008014010B50421014800F01CFA10BD76
:101B20000008014010B50421014800F012FA10BD70
:101B30000008014070B50025002601F0C1F821A27F
:101B40000121084601F020FA2348007870B123A251
:101B50000121022001F018FA25A20121032001F041
:101B600013FA00F041FC00F049FC0DE024A2012131
:101B7000022001F009FA28A20121032001F004FA51
:101B800000F046FC00F026FC28A20121042001F010
:101B9000FBF929A001F0BAFA0CE000F091FB044631
:101BA000B44203D0042C00D101252646642000F065
:101BB00056F800BF002DF0D000F020FC00F00AFC29
:101BC00070BD00003D3D3D20426C7565746F6F74C3
:101BD00068203D3D3D000000080000205374617402
:101BE00075733A20436F6E6E656374656400000020
:101BF0004465766963653A204A44592D33310000C3
:101C00005374617475733A20446973636F6E6E65C3
:101C10006374656400000000436865636B20436F74
:101C20006E6E656374696F6E000000004B657934F9
:101C30003A204261636B00005B5354415455535D3D
:101C400020426C7565746F6F74682073746174756D
:101C50007320636865636B0000BFFEE7704700B5E3
:101C6000034603E04FF47A7000F005F8181EA3F164
:101C70000103F7D100BD00EBC001C9004FF0E02225
:101C80005161002191610521116100BF4FF0E021F8
:101C9000096901F480310029F8D004214FF0E022D5
:101CA0001161704710B501200649087006A001F0C7
:101CB0002DFA00F085FB3220FFF7D1FF00F076FB14
:101CC00010BD00003E0000205B46414E5D20417586
:101CD000746F206D6F646520656E61626C65640071
:101CE00010B5044634B1012C0DD0022C14D0032CB5
:101CF00024D11AE00821144800F02BF901211348DF
:101D000000F027F91BE008210F4800F024F9012119
:101D10000E4800F01EF912E008210B4800F019F9F6
:101D200001210A4800F017F909E00821064800F0EF
:101D300012F90121054800F00EF900E010BD00BFC6
:101D40000348047000BFF9E700080140000C01409F
:101D50005B00002010B50120FFF7C2FF10BD00009E
:101D600008B501210C2001F055F90820ADF800005C
:101D700010208DF8030003208DF802006946064804
:101D800000F053F80120ADF800006946034800F068
:101D90004CF800F045F808BD00080140000C014077
:101DA00010B500F03DF800200649087006A001F0CB
:101DB000ADF900F02DFB3220FFF751FF00F01EFBC4
:101DC00010BD00003E0000205B46414E5D204D618D
:101DD0006E75616C3A2046616E204F4646000000E9
:101DE00010B5FFF7B7FF00200649087006A001F004
:101DF0008DF900F0F9FA3220FFF731FF00F0EAFA2E
:101E000010BD00003E0000205B46414E5D204D614C
:101E10006E75616C3A2046616E204F4E00000000E6
:101E200010B50020FFF75CFF10BD2DE9F041024620
:101E300000250026002000230024002791F803C07D
:101E40000CF00F0591F803C00CF0100CBCF1000F62
:101E500003D091F802C04CEA050591F800C0BCF12E
:101E6000000F31D0146800202BE04FF0010C0CFA69
:101E700000F3B1F800C00CEA03069E4220D18300B3
:101E80004FF00F0C0CFA03F7BC4305FA03FC4CEAC5
:101E9000040491F803C0BCF1280F06D14FF0010CE7
:101EA0000CFA00FCC2F814C00AE091F803C0BCF1BF
:101EB000480F05D14FF0010C0CFA00FCC2F810C01D
:101EC000401C0828D1D31460B1F800C0BCF1FF0F4A
:101ED00034DD546800202EE000F1080C4FF00108BA
:101EE00008FA0CF3B1F800C00CEA03069E4221D1B7
:101EF00083004FF00F0C0CFA03F7BC4305FA03FC08
:101F00004CEA040491F803C0BCF1280F05D100F19C
:101F1000080C08FA0CF8C2F8148091F803C0BCF160
:101F2000480F07D100F1080C4FF0010808FA0CF82F
:101F3000C2F81080401C0828CED35460BDE8F08160
:101F40000246002093680B400BB1012000E0002006
:101F5000704741617047016170470AB1016100E05B
:101F60004161704770B50025002600F0A9FE14A25B
:101F70000121084601F008F815A20121022001F014
:101F800003F817A20121032000F0FEFF18A201218F
:101F9000042000F0F9FF19A001F0B8F80CE000F0FF
:101FA0008FF90446B44203D0042C00D10125264603
:101FB0006420FFF754FE00BF002DF0D070BD00007C
:101FC000476173205468726573686F6C64730000B6
:101FD0004E6F726D616C203C203530300000000087
:101FE0005761726E203530302D38303000000000DF
:101FF000416C61726D203E20383030005B54485295
:102000004553485D20566965772067617320746881
:10201000726573686F6C6473000000002DE9F04115
:1020200090B04FF00008002700F04AFE62A20121A4
:10203000084600F0A9FF63A20121022000F0A4FFDE
:1020400063A20121032000F09FFF63A2012104206D
:1020500000F09AFF66A001F059F895E0032000F027
:10206000ADFB6A49088000F03FFB064668A20721E5
:10207000022000F089FF042364480288072102201F
:1020800000F060FF36B1012E0ED0022E16D0032EC6
:1020900030D129E060A20721032000F075FF00F095
:1020A000A3F900F0ABF925E05DA20721032000F0C1
:1020B0006BFF00F099F900F0ABF91BE05AA2072181
:1020C000032000F061FF00F0A3F900F083F9FFF7AF
:1020D00029FD3220FFF7C3FDFFF71CFD54480068BF
:1020E000401C5349086005E052A20721032000F07C
:1020F0004BFF00BF00BF781CC7B2032F1ADB26B10D
:10210000012E04D0022E06D103E04CA405E044A425
:1021100003E04CA401E04DA400BF00BF23463B48B0
:1021200002884CA101A8FEF765F801A800F0EEFFB7
:10213000002700BF00F0C4F80546032D18D1FFF7B3
:1021400011FF00F0BDFD1CA20121084600F01CFF9C
:102150001CA20121022000F017FF1DA20121032073
:1021600000F012FF1CA20121042000F00DFF06E088
:10217000042D04D14FF001083DA000F0C7FF4FF43B
:102180009670FFF76CFD00BFB8F1000F3FF466AF2B
:1021900000F096FD3DA20121032000F0F5FEC820CD
:1021A000FFF75DFD00F02AF900F014F900F060FB84
:1021B00010B0BDE8F08100003D3D3D204761732037
:1021C0003D3D3D0056616C75653A202D2D2D2D004D
:1021D0004C6576656C3A00004B6579333A54687209
:1021E000657368204B6579343A4261636B00000087
:1021F0005B4741535D20456E7465722067617320B3
:1022000076696577206D6F64650000002C00002002
:1022100020202020000000004E6F726D616C2000B5
:102220005761726E696E6700414C41524D2120002A
:10223000040000204572726F722020004E6F726D94
:10224000616C0000414C41524D0000004572726FBC
:10225000720000005B4741535D2056616C75653A22
:102260002025642C204C6576656C3A20257300008F
:102270005B4741535D204578697420676173207620
:10228000696577206D6F64650000000045786974AA
:10229000696E672E2E2E0000034800680249096807
:1022A000491C014A116070471C00002000BFFEE776
:1022B000052000BF011EA0F10102D0B2FAD1704783
:1022C00010B510212C48FFF73BFE01280FD1142038
:1022D000FFF7C5FC10212848FFF732FE012806D180
:1022E0001420FFF7BCFCFFF7F3FB012010BD2021F9
:1022F0002148FFF725FE01280FD11420FFF7AFFC7E
:1023000020211D48FFF71CFE012806D11420FFF7ED
:10231000A6FCFFF7DDFB0220E8E740211648FFF7A7
:102320000FFE01280FD11420FFF799FC402112481D
:10233000FFF706FE012806D11420FFF790FCFFF7F7
:10234000C7FB0320D2E780210B48FFF7F9FD0128E6
:102350000FD11420FFF783FC80210748FFF7F0FD21
:10236000012806D11420FFF77AFCFFF7B1FB042007
:10237000BCE70020BAE700000008014008B50121D1
:10238000042000F047FE28208DF8030003208DF87C
:102390000200F020ADF8000069460348FFF745FD54
:1023A0000A20FFF75CFC08BD0008014010B54FF49F
:1023B00000710248FFF7CFFD10BD0000000801408A
:1023C00010B54FF400710248FFF7C3FD10BD0000C7
:1023D0000008014010B54FF480610248FFF7BBFDD3
:1023E00010BD00000008014010B54FF480610248A4
:1023F000FFF7AFFD10BD00000008014010B54FF41D
:1024000080710248FFF7A7FD10BD000000080140E1
:1024100010B54FF480710248FFF79BFD10BD00001E
:102420000008014008B501210C2000F0F3FD102048
:102430008DF8030003208DF802004FF4E060ADF842
:10244000000069460A48FFF7F0FC4FF47040ADF811
:10245000000069460748FFF7E8FC4FF4E0610448D4
:10246000FFF779FD4FF470410248FFF774FD08BD96
:1024700000080140000C014008B50121082000F0CF
:10248000C9FD0220ADF8000004208DF80300694664
:102490000148FFF7CAFC08BD000C014010B502213D
:1024A0000748FFF74DFD012800D110BD0221044867
:1024B000FFF746FD08B90220F7E70020F5E7000026
:1024C000000C014070B58EB00026002500F0F8FB2E
:1024D00045A20121084600F057FD47A20121022034
:1024E00000F052FD46A20121032000F04DFD46A25E
:1024F0000121042000F048FD46A000F007FE5EE048
:10250000FFF7CCFF4B4908700846007802280DD130
:1025100049A2082100F038FD49A20721032000F05C
:1025200033FDFFF761FFFFF769FF1CE041480078CA
:1025300001280ED145A20821022000F025FD45A268
:102540000721032000F020FDFFF762FFFFF742FFA5
:1025500009E043A20821022000F016FD42A2072153
:10256000032000F011FD681CC5B20A2D1ADB3148AA
:102570000078022804D13FA101A8FDF73BFE0CE042
:102580002C480078012804D141A101A8FDF732FEB2
:1025900003E045A101A8FDF72DFE01A800F0B6FD5E
:1025A000002500BFFFF78CFE0446042C03D1012652
:1025B00042A000F0ABFDC820FFF751FB00BF002E8A
:1025C0009ED000F07DFB45A20121032000F0DCFC41
:1025D000C820FFF744FBFFF711FFFFF7FBFE00F0F9
:1025E00047F90EB070BD00003D3D3D204C69676865
:1025F00074203D3D3D0000005374617475733A00D2
:1026000056616C75653A00004B6579343A20426139
:10261000636B00005B4C494748545D20456E746510
:1026200072206C696768742076696577206D6F64C5
:10263000650000002E000020425249474854000027
:102640003220284272696768742900004441524B65
:10265000202000003120284461726B2920000000F6
:102660004552524F522000004572726F7220202056
:10267000000000005B4C494748545D20537461746E
:1026800075733A20425249474854283229000000C5
:102690005B4C494748545D205374617475733A200C
:1026A0004441524B283129005B4C494748545D2036
:1026B00052656164204572726F7200005B4C49473D
:1026C00048545D2045786974206C69676874207689
:1026D000696577206D6F6465000000004578697456
:1026E000696E672E2E2E000010B5032000F066F8EC
:1026F00004460A480088844201DA002010BD0848D8
:102700000088844201DA0120F8E706480088844204
:1027100001DA0220F2E70320F0E700005C0000206D
:102720005E0000206000002000B587B001214FF45A
:10273000027000F06FFC0120ADF8180000208DF849
:102740001B0006A91B48FFF770FB002001908DF8C5
:1027500008008DF809004FF46020039000200490D9
:1027600001208DF8140001A91348FEF789FE052306
:10277000012208211048FEF7ABFE01210E48FEF7AA
:1027800052FE0D48FEF700FF00BF0B48FEF76DFE3E
:102790000028FAD10848FEF707FF00BF0648FEF7F9
:1027A0004DFE0028FAD100F021F86420FFF757FA17
:1027B00007B000BD000C01400024014070B5044684
:1027C000002604B9012400250AE000F00FF80644B1
:1027D000601EA84202DD0A20FFF741FA681CC5B25C
:1027E000A542F2DBB6FBF4F080B270BD10B501215A
:1027F0000648FEF7CEFE00BF02210448FEF72CFE7D
:102800000028F9D00148FEF723FE10BD0024014046
:1028100000BFFEE710B51548006828B313480468E8
:1028200000684069114908600846006820B1084600
:102830000068806948600FE00C48446004E00B4881
:102840004068006A094948600848406820B1074864
:102850004068006A0028F2D100200449087601F09F
:10286000E3FA00F005F800BF10BD0000640000208E
:1028700030B585B000F024FA002435E01E4850F849
:10288000240078B31C480838007EA04206D13E20C0
:102890008DF8000020208DF8010004E020208DF844
:1028A00000008DF80100002509E0134850F82400CD
:1028B000401C415DA81C0DF80010681CC5B20E48F4
:1028C00050F82400401C405D08B10E2DEDDB0021C6
:1028D000A81C0DF80010611CC8B26A46012100F066
:1028E00053FB00BF601CC4B203480838407EA042BE
:1028F000C4DC05B030BD00006C00002010B51548E8
:10290000017E407E401E81420BDA1248407E002844
:1029100007DD1048007E401C0E490876FFF7A8FF2F
:1029200016E00C48407E401E0A49083151F820400C
:102930006CB1E06958B10839E069486001F074FA97
:102940000448407E401E03490876FFF791FF00BF10
:1029500010BD00006400002010B51D48407E00B985
:1029600010BD1B48017E083050F8214004B9F7E73C
:10297000606A10B1606A8047F2E716A1601CFDF73B
:1029800063FD10B1FFF746FFEAE7A06958B11048B0
:1029900004600F49A06948600020087601F044FAFD
:1029A000FFF766FF11E000F08BF90CA20121022075
:1029B00000F0EAFA621C0121032000F0E5FA4FF46E
:1029C0007A70FFF74CF9FFF753FF00BFC8E700002C
:1029D000640000203C2D204261636B0056696577DE
:1029E000204F6E6C7900000000B593B0002250A11A
:1029F000012001F00DF90F90002250A1022001F0FA
:102A000007F91090002250A1032001F001F9119064
:102A1000002251A1042001F0FBF8129004210FA81C
:102A200001F026F9504A51A1012001F0F1F80B9074
:102A3000504A51A1022001F0EBF80C90514A52A1EA
:102A4000032001F0E5F80D90002250A1042001F0D0
:102A5000DFF80E9004210BA801F00AF90B990F98EA
:102A600001F0DAF94B4A4CA1012001F0D1F80790AE
:102A70004B4A4CA1022001F0CBF808904B4A4CA1E4
:102A8000032001F0C5F80990002240A1042001F0C4
:102A9000BFF80A90042107A801F0EAF807991098F6
:102AA00001F0BAF9454A46A1012001F0B1F80490BD
:102AB000474A48A1022001F0ABF80590002233A15B
:102AC000032001F0A5F80690032104A801F0D0F836
:102AD0000499119801F0A0F9424A43A1012001F0A4
:102AE00097F80090424A43A1022001F091F801902A
:102AF000424A43A1032001F08BF80290002223A157
:102B0000042001F085F803900421684601F0B0F834
:102B10000099129801F080F900203C4908600F9854
:102B200048600020087601F07FF913B000BD000076
:102B3000566965772044617461000000436F6E74CC
:102B4000726F6C2046616E0056696577205468721A
:102B50006573686F6C64000053797374656D2053FE
:102B60007461747573000000C52400084C696768BF
:102B700074000000D932000854656D702648756DE8
:102B8000000000001D200008476173003C2D20421A
:102B900061636B00E11D000846616E204F4E00002E
:102BA000A11D000846616E204F464600A51C000886
:102BB0004175746F204D6F6465000000651F00084B
:102BC000476173205468726573686F6C640000001D
:102BD000BD35000854656D70205468726573686F68
:102BE0006C640000E13A0008557074696D6500007E
:102BF000151A0008416C61726D730000351B0008E6
:102C0000426C7565746F6F7468000000640000208A
:102C100010B50D48007E002807DD0B48007E401EE1
:102C200009490876FFF724FE0CE00748846844B1A0
:102C3000206A30B101F0F8F8002003490876FFF768
:102C400017FE00BF10BD00006400002070470000A8
:102C500070B5002100230F22C47804B3154C2468FA
:102C600004F4E064C4F5E064210AC1F10403CA403D
:102C7000447804FA03F184781440214309010E4C8E
:102C80000678A155047804F01F050124AC400578AE
:102C90006D11AD0005F1E025C5F8004109E00478AB
:102CA00004F01F050124AC40044D0678761145F868
:102CB000264070BD0CED00E000E400E080E100E0A3
:102CC00070B500240EE00021204600F0F0F8002549
:102CD00004E0002000F07CF9681CC5B2802DF8DB10
:102CE000601CC4B2082CEEDB70BD000008B50121E9
:102CF000082000F08FF914208DF8030003208DF8D0
:102D000002004FF48070ADF8000069460A48FFF7F2
:102D10008CF84FF40070ADF8000069460648FFF7E4
:102D200084F8012211020448FFF717F90122510229
:102D30000148FFF712F908BD000C014070B50546C7
:102D4000002415E08020204100EA05024FF40071C4
:102D50000E48FFF702F9012211020C48FFF7FDF8B7
:102D600000224FF480710948FFF7F7F8601CC4B2E5
:102D7000082CE7DB012211020448FFF7EEF80022DD
:102D80004FF480710148FFF7E8F870BD000C014076
:102D900010B5012251020A48FFF7DFF801221102A3
:102DA0000748FFF7DAF800224FF400710448FFF7F4
:102DB000D4F800224FF480710148FFF7CEF810BD1F
:102DC000000C014010B500224FF400710648FFF7D7
:102DD000C4F8012211020448FFF7BFF80122510292
:102DE0000148FFF7BAF810BD000C014070B500248F
:102DF00006E0002500E06D1CB5F57A7FFBD3641C6E
:102E0000B4F57A7FF5D3FFF771FFAE2000F0D0F86C
:102E1000D52000F0CDF8802000F0CAF8A82000F0FE
:102E2000C7F83F2000F0C4F8D32000F0C1F800201C
:102E300000F0BEF8402000F0BBF8A12000F0B8F888
:102E4000C82000F0B5F8DA2000F0B2F8122000F047
:102E5000AFF8812000F0ACF8CF2000F0A9F8D9201D
:102E600000F0A6F8F12000F0A3F8DB2000F0A0F8B5
:102E7000302000F09DF8A42000F09AF8A62000F081
:102E800097F88D2000F094F8142000F091F8AF200E
:102E900000F08EF8FFF714FF70BD10B50246012058
:102EA00000E050430B1EA1F10101FAD110BD70B535
:102EB00005460C4645F0B00000F07AF8102141EAD2
:102EC000141000F075F804F00F0000F071F870BDF8
:102ED0002DE9F04105460E461746721ED206110E28
:102EE0006A1E5206100EFFF7E2FF002409E0A7F168
:102EF0002001134A02EB0111085D00F069F8601C23
:102F0000C4B2082CF3DB721ED206110E6A1E012316
:102F100003EB4202D0B2FFF7CAFF00240BE0A7F197
:102F20002001074A02EB011204F10801505C00F095
:102F30004FF8601CC4B2082CF1DBBDE8F081000042
:102F40003E4500082DE9F04780460E4617461D46CF
:102F5000002415E0281B411E0A20FFF79EFFB7FB47
:102F6000F0F00A21B0FBF1F201FB120000F1300990
:102F70003019C1B24A464046FFF7AAFF601CC4B2EE
:102F8000AC42E7DBBDE8F0872DE9F04107460E468D
:102F90001546002407E02A5D3019C1B23846FFF714
:102FA00097FF601CC4B2285D0028F4D1BDE8F08111
:102FB00010B50446FFF7ECFE7820FFF7BFFE0020B7
:102FC000FFF7BCFE2046FFF7B9FEFFF7FBFE10BD82
:102FD00010B50446FFF7DCFE7820FFF7AFFE402077
:102FE000FFF7ACFE2046FFF7A9FEFFF7EBFE10BD92
:102FF0007047000029B1064AD2690243044BDA61E6
:1030000004E0034AD2698243014BDA617047000051
:103010000010024029B1064A92690243044B9A61AA
:1030200004E0034A92698243014B9A6170470000B1
:103030000010024030B500210022002400232D4D55
:103040006D6805F00C0121B1042905D0082923D1B0
:1030500005E0294D056022E0274D05601FE0254D64
:103060006D6805F47012234D6D6805F480340225F7
:1030700005EB92421CB9214D554305600BE01D4DF7
:103080006D6805F400351DB11C4D5543056002E027
:10309000194D5543056002E0174D056000BF00BFA4
:1030A000144D6D6805F0F0010909154D6B5C05685C
:1030B000DD4045600F4D6D6805F4E061090A104D73
:1030C0006B5C4568DD4085600A4D6D6805F46051B4
:1030D000C90A0B4D6B5C4568DD40C560054D6D68E8
:1030E00005F44041890B074D6B5CC568B5FBF3F5F2
:1030F000056130BD0010024000127A0000093D0059
:1031000044000020540000207047000070B50446C1
:1031100012E042F2107521781B4800F00AFC03E02F
:10312000681E051E00D105E08021174800F033FB22
:103130000028F5D000BF641C20780028E9D142F2B5
:1031400010750D21104800F0F4FB03E0681E051E09
:1031500000D170BD80210C4800F01DFB0028F5D087
:1031600042F210750A21084800F0E3FB03E0681EF4
:10317000051E00D1EDE78021034800F00CFB00287C
:10318000F5D000BFE5E700000048004010B500F0B2
:1031900001F810BD0CB50020019000903348006884
:1031A00040F480303149086000BF3048006800F4C6
:1031B000003000900198401C0190009818B90198C7
:1031C000B0F5A06FF1D12948006800F4003010B1CB
:1031D0000120009001E0002000900098012843D1D8
:1031E0002348006840F01000214908600846006844
:1031F00020F0030008600846006840F00200086004
:103200001A484068194948600846406848600846BE
:10321000406840F4806048600846406820F47C10B4
:1032200048600846406840F4E81048600846006876
:1032300040F08070086000BF0C48006800F000702B
:103240000028F9D00948406820F003000749486089
:103250000846406840F00200486000BF03484068EC
:1032600000F00C000828F9D10CBD0000001002404D
:10327000002002407047000010B51348006840F07D
:1032800001001149086008464068104908400E498D
:103290004860084600680E4908400B490860084627
:1032A000006820F4802008600846406820F4FE0092
:1032B00048604FF41F008860FFF768FF4FF0006020
:1032C0000449086010BD0000001002400000FFF833
:1032D000FFFFF6FE08ED00E02DE9F04F95B04FF04E
:1032E000000AD146FFF7ECFC7AA201210846FFF75D
:1032F0004BFE7DA201210220FFF746FE7DA20121A7
:103300000320FFF741FE7EA201210420FFF73CFECF
:103310007EA0FFF7FBFEC6E088498948FEF7C0FAA9
:103320001490149800287CD18548006800F02AFF8A
:1033300080B2139083498248006800F08BFF0546F5
:1033400000F020FF80B20A2190FBF1F201FB120095
:103350001FFA80FB7CA206210220FFF715FE022344
:1033600006211846139AFFF7EDFD2E2208210220B0
:10337000FFF7AEFD01235A4609210220FFF7E2FDC7
:1033800043220A210220FFF7A3FD6C48006800F0E9
:10339000F9FE80B212906B496848006800F05AFF4D
:1033A000054600F0EFFE80B20A2190FBF1F201FB2E
:1033B000120080B2119064A206210320FFF7E4FD01
:1033C000022306210320129AFFF7BCFD2E220821BA
:1033D0000320FFF77DFD012309210320119AFFF748
:1033E000B1FD25220A210320FFF772FD57495448F9
:1033F000006800F0FBFF18D255495148006800F002
:10340000F5FE12D253494D48006800F0EFFF0CD290
:1034100051494A48006800F0E9FE06D2FEF7E4FF91
:1034200000E027E0FEF7EAFF03E0FEF7F1FFFEF71A
:10343000D1FF09F1010000F0FF09B9F1050F18DB18
:103440003E48006800F042FD05460E463C480068D4
:1034500000F03CFD07463A460B4640A102A8CDE9E4
:103460000056FCF7C7FE02A8FFF750FE4FF0000918
:1034700000BF09E041A206210220FFF785FD3FA21F
:1034800006210320FFF780FDFEF71AFF0446042CF7
:1034900004D14FF0010A3BA0FFF738FE4FF4FA7059
:1034A000FEF7DDFB00BFBAF1000F3FF435AFFFF7C9
:1034B00007FC3FA201210320FFF766FDC820FEF7AD
:1034C000CEFBFEF79BFFFEF785FFFFF7D1F915B0A6
:1034D000BDE8F08F3D3D3D2054656D702648756D0B
:1034E000203D3D3D0000000054656D703A202D2DBB
:1034F0002E2D430048756D693A202D2D2E2D250067
:103500004B6579343A204261636B00005B54264876
:103510005D20456E7465722074656D7065726174AE
:1035200075726520262068756D69646974792076E6
:10353000696577206D6F6465000000002800002039
:103540002400002000002041202020000000A04195
:103550000000F0410000204200008C425B542648ED
:103560005D2054656D703A20252E3166432C20482D
:10357000756D693A20252E31662525004572726FDA
:10358000720000005B5426485D2045786974207401
:10359000656D706572617475726520262068756D41
:1035A00069646974792076696577206D6F64650058
:1035B00045786974696E672E2E2E000070B500255F
:1035C0000026FFF77DFB14A201210846FFF7DCFC73
:1035D00015A201210220FFF7D7FC17A20121032029
:1035E000FFF7D2FC17A201210420FFF7CDFC18A0A1
:1035F000FFF78CFD0CE0FEF763FE0446B44203D0F7
:10360000042C00D1012526466420FEF728FB00BFCC
:10361000002DF0D070BD000054656D7020546872AC
:103620006573686F6C647300436F6D666F72743A94
:103630002032302D33304300436F6C643A203C31EC
:1036400035430000486F743A203E33354300000094
:103650005B5448524553485D205669657720746530
:103660006D706572617475726520746872657368D7
:103670006F6C64730000000000B587B00121082062
:10368000FFF7C8FC01218804FFF7B4FC4FF4806009
:10369000ADF8180018208DF81B0003208DF81A00D3
:1036A00006A91E48FEF7C1FB4FF40060ADF81800F4
:1036B00004208DF81B0006A91848FEF7B6FB4FF44E
:1036C000165002900020ADF80C00ADF80E00ADF8D9
:1036D0001000ADF814000C20ADF8120002A910483B
:1036E00000F0B6F827208DF8040001208DF80700BF
:1036F00003208DF8050002208DF8060001A8FFF7D1
:10370000A7FA012240F22551054800F07BF801217B
:10371000034800F034F807B000BD0000000C014081
:103720000048004010B540F225510A4800F040F82A
:1037300001280DD1074800F0F7F80749087008463E
:1037400000780649087040F22551024800F008F858
:1037500010BD000000480040590000205800002023
:1037600010B50022002340F66A14A14200D100BF28
:103770000A1201249440A3B2DC43048010BD21B19D
:10378000828942F40052828104E082894DF6FF73FF
:103790001A408281704702460020B1F5007F00D1B7
:1037A00000BF13880B400BB1012000E000207047E0
:1037B00070B50246002400230025002040F66A165A
:1037C000B14200D100BFC1F3421501F01F03012631
:1037D00006FA03F3012D02D19689334006E0022D4B
:1037E00002D1168A334001E0968A33400C1201263A
:1037F00006FA04F41688344013B10CB1012000E03D
:10380000002070BDF0B503460024002600250020EE
:1038100040F66A17B94200D100BF1846C1F34214FE
:1038200001F01F06012707FA06F5012C01D10C3023
:1038300004E0022C01D1103000E014301AB1076806
:103840002F43076002E00768AF430760F0BD000048
:103850002DE9F04786B005460E460024A24600BF7B
:10386000A1460027B08900B100BF2F462C8A4CF634
:10387000FF700440F08804432C82AC894EF6F310AC
:103880000440B08831890843718908430443AC81FE
:10389000AC8A4FF6FF400440B0890443AC8201A8D3
:1038A000FFF7C8FB1F48874202D1DDF810A001E0F6
:1038B000DDF80CA0A88900F4004040B10AEBCA0072
:1038C00000EB0A1031684900B0FBF1F807E00AEBA1
:1038D000CA0000EB0A1031688900B0FBF1F86420DF
:1038E000B8FBF0F004012009642101FB1089A889CC
:1038F00000F4004040B1322000EBC900B0FBF1F011
:1039000000F00700044308E0322000EB09106421B6
:10391000B0FBF1F000F00F0004432C8106B0BDE8CD
:10392000F08700000038014001468888C0F3080095
:103930007047C1F3080282807047000010B51A4931
:103940001A48006800F052FD1FD81949174800684E
:1039500000F04CFC19D817491748006800F046FDE4
:1039600013D816491448006800F040FC0DD84FF4F5
:1039700080511348FEF7EFFA4FF400511048FEF75C
:10398000E8FA00200F4908700CE04FF480510C4811
:10399000FEF7DFFA4FF400510948FEF7DCFA012088
:1039A0000849087010BD00000000A0410C00002074
:1039B0000000F041000020421000002000008C4276
:1039C000000C01401700002010B510480088B0F529
:1039D0007A7F0DDB4FF480410D48FEF7BAFA4FF4C1
:1039E00000410B48FEF7B7FA01200A4908700CE0C5
:1039F0004FF480410648FEF7AEFA4FF40041044808
:103A0000FEF7A7FA00200349087010BD140000203B
:103A1000000C01401800002010B5FEF73FFD0649DC
:103A2000087006490648FDF73BFF0320FEF7C6FE77
:103A30000449088010BD000016000020100000207E
:103A40000C0000201400002010B52248007820B19E
:103A50002148007808B100240EE01E48007810B913
:103A60001D48007828B91C48007820B9194800780A
:103A700008B1012400E00224022C0CD1E101174816
:103A8000FEF767FA21021548FEF765FA610213484E
:103A9000FEF761FA1DE0012C0CD121020F48FEF760
:103AA0005AFA61020D48FEF754FAA1020B48FEF7DC
:103AB00052FA0EE04FF480710848FEF74CFA4FF4CA
:103AC00000710648FEF747FA4FF480610348FEF79D
:103AD00040FA10BD17000020180000200008014027
:103AE0002DE9F04788B000250026FFF7E9F825A268
:103AF00001210846FFF748FA264800682649B0FB2E
:103B0000F1F724480068B0FBF1F201FB12004FF41A
:103B10006161B0FBF1F81F480068B0FBF1F201FBF6
:103B200012003C21B0FBF1F91A480068B0FBF1F239
:103B300001FB120A43463A4618A103A8CDE9009AB0
:103B4000FCF758FB03AA01210220FFF71DFA18A277
:103B500001210420FFF718FA18A0FFF7D7FA0CE0AC
:103B6000FEF7AEFB0446B44203D0042C00D101257D
:103B700026466420FEF773F800BF002DF0D008B091
:103B8000BDE8F0873D3D3D20557074696D65203D71
:103B90003D3D00000000002080510100256C75644F
:103BA00020256C756820256C756D20256C7573005B
:103BB0004B6579343A204261636B00005B5354419A
:103BC0005455535D205669657720757074696D652D
:103BD0000000000000BFFEE7490050EAC12018BF06
:103BE00004204A0D18BF40F0010040F2FF72B2EB12
:103BF000515F08BF40F00200012808BF0520704750
:103C000030380A2801D20120704700207047000098
:103C1000F0B504460B461546134800781E2801DB14
:103C20000020F0BD104806780078401C0E4F387018
:103C300006EB86000D4E06EBC0010C70002204E07E
:103C40009E5C481C8654501CC2B2985C08B10F2A76
:103C5000F6DB0026481C8654002048618861C86154
:103C600008624D620846DCE720000020800000204A
:103C700010B50246002012E0002805DD431E52F870
:103C8000233052F8204023624B1E834205DD431C43
:103C900052F8233052F82040E361431CD8B28842E6
:103CA000EADB10BDFFF7A2F8C820FDF7D8FFFFF749
:103CB00007F83EA201210846FFF766F93FA201215D
:103CC0000220FFF761F941A201210320FFF75CF90F
:103CD00042A201210420FFF757F94FF47A70FDF753
:103CE000BEFFFEF79FFBFDF7FDFEFEF747FBFFF76C
:103CF000C3FCFEF7C1FBFDF76DFDFEF715FDFEF7FA
:103D00002FF8FEF771FEFEF7B3FD36A0FFF7FEF9C0
:103D100000260027B04648E0FEF7D2FA0546012DFE
:103D200002D1FEF775FF0DE0022D02D1FEF7E6FD90
:103D300008E0032D02D1FEF70FFE03E0042D01D1B0
:103D4000FEF768FDFEF7A8FA0446E01B642805D3D9
:103D5000274628480068401C26490860A01B3228D6
:103D600008D32646FFF758FEFFF7E8FDFFF72CFEC5
:103D7000FFF76AFEA4EB0800C82812D3A0461E482D
:103D80000088B0F57A7F0ADBFDF7CCFE1BA0FFF7B9
:103D9000BDF920480068401C1E49086001E0FDF79D
:103DA000B9FE0A20FDF75BFF00BFB5E753797374D6
:103DB000656D205374617274696E670053544D339E
:103DC000324631303343385436000000506C656160
:103DD000736520776169742E2E2E0000566572205F
:103DE000312E300053797374656D20537461727491
:103DF0006564000000000020140000205B414C417D
:103E0000524D5D2047617320646574656374656419
:103E1000210000000400002000B101B97047816159
:103E2000486100BFFAE7000010B50020184A126888
:103E30001AB1174A1268906907E0154A506800E005
:103E4000006A10B1026A002AFAD1002206E00024BA
:103E50000F4B083343F82240531CDAB2042AF6DB36
:103E600000220B4B5A76014600BF0BE0084B08338B
:103E700043F82210083B5B7E5B1C054C6376C969E6
:103E8000531CDAB2042A01DA0029EFD110BD000078
:103E90006400002010B500290AD00878002807D057
:103EA00005487844FCF7B0FE002801D0002010BD82
:103EB0000248784410BD0000420D00003A0D000099
:103EC0000808A0F500114FEA3101704743004FEA9E
:103ED000D30C4FEA3C0C43401FBF40070CF160512C
:103EE00013F0FE4F70471CF0006F03D100200CF060
:103EF000004170470CF0004343EA507010B540EAAF
:103F0000CC0000F028FA00BF000000924FEA000148
:103F1000FFF7D6BF4FF000414FF00000A1F50021A0
:103F20007047000090EA010F48BF81F0004100F1A6
:103F30009682421A3CBF801A89184FEAD0524FF03D
:103F40007F4C1CEA410FA2EBD15318BF9CEA026FD1
:103F500000F03B804FF0004C4CEA00204CEA01217D
:103F600021FA03FC10EB0C0C1ED202F1FF325FEAC7
:103F70001C2040EBC25038BF70471CF07F0F4FEA47
:103F8000400C18BFBCF17F4F38BF7047C3F120030E
:103F9000994008BF20F00100BCF17F4F38BF704747
:103FA000A0F1C04000F01DBA4FEA3C00000A40EB0F
:103FB000C25028BF1CF0FF0F4FEA400CE6D018BFDC
:103FC000BCF17F4F38BF7047EAE79CEA026F05D02B
:103FD00010EA5C0F08BF00F00040704710B500F019
:103FE000BAF900BF64FBBE3E401058BFC0F140406C
:103FF000491058BFC1F140418142EFF30080704742
:104000004FF47F0C1CEAD0121EBF1CEAD11392EAB7
:104010000C0F93EA0C0F00F0858090EA010F48BF67
:1040200042F4807240F4000C41F400002CF07F4117
:1040300020F07F4000B58142A2EB03020FF2081C82
:10404000ACEB504EC0F100009EF800E04FEA4E0E7F
:1040500000FB0EFC38BF49004FEA2C1C02F5FA02A7
:104060000CFB0EF34FEACE1E4FEA112C4FEAC12192
:104070000EEB635E42EB22420EFB0CFC4FEA1C533C
:1040800000FB03114FEA112C4FEA01310EFB0CFC2F
:104090004FEADC4C00FB0C11C14228BF09184CEB65
:1040A00003335DF804EB10EB410143EBC250B2F572
:1040B0007C0F38BF704729D512F0F00F1CBF00F1FC
:1040C000C04000F00040704700818283848586876D
:1040D00088898B8C8D8E8F919293959697999A9CC7
:1040E0009D9FA0A2A3A5A7A8AAACAEB0B2B3B5B736
:1040F000B9BCBEC0C2C5C7C9CCCED1D4D7D9DCDF0C
:10410000E2E6E9ECF0F3F7FAFE0000004FEA400CBB
:104110000CF1807CBCF17E4F28BF7047B0F1C040ED
:1041200000F05FB990EA010F0CEAD11348BF42F4E6
:104130008072624538BF634507D213F47F0F16D0F3
:1041400080EA010000F00040704710B500F003F96C
:10415000097EFC3E00F005B880EA010000F0004056
:10416000704780EA010000F0004000F03AB912F414
:104170007F0F04BF0248704780EA010000F031B9A8
:104180000000C07FC10DD1F19E0206DB4FEA002383
:1041900043F0004323FA02F07047004207D54FEA8C
:1041A0004001B1F1FE4F02D24FF00000704710B550
:1041B00000F0D1F849922480002070476FEA200077
:1041C00070470000B0FA80F310FA03F2C3F19D03C8
:1041D0000AD0D90501EB1220530638BF704700F111
:1041E000010008BF20F001007047000050EA010CF8
:1041F00000F113801CF5000F58BFBCF5000F01D46F
:104200008842704707D710F5000F58BF11F5000F0F
:1042100015D488427047894270471CF5000F04D5B9
:10422000BCF5000FF7D5814270474FF0807C1CEB46
:10423000400F38BF1CEB410F01D28142704710B5CF
:1042400000F089F8922449004FF000504FF080515F
:10425000FFF7CABE4FF47F0C1CEAD0121EBF1CEA47
:10426000D11392EA0C0F93EA0C0F00F0478090EA0A
:10427000010F48BF42F480724FF0004C4CEA00201E
:104280004CEA012102EB0302A0FB0113A2F500029C
:10429000002918BF43F001035B0028BF4FEA330336
:1042A00042EB22425FEA132C4CEBC2502EBFBCEB18
:1042B000436FB2F57C0F70474FEA036CBCF1004FBF
:1042C00008BF20F00100B2F57C0F38BF70470BD556
:1042D00082F0FF0212F5803FC8BF704700F1C04076
:1042E000D8BF00F00040704700F5000C5FEA4C0CAE
:1042F00048BF7047B0F1C04000F073B890EA010FBA
:104300000CEAD11348BF42F48072624538BF63455E
:1043100004D280EA010000F00040704710B500F0C0
:104320001AF800BF8900013E00F007B800F009B894
:104330005FEA410C5FEA1C6C08D080EA010000F0E3
:1043400050B85FEA400C5FEA1C6CF6D14FF00040B9
:10435000A0F5800070470EF1020E2EF0030E5EF8FD
:10436000044B244204D44FEA4102B2F17F4F11D8EA
:104370004FEA4003B3F17F4F0CD80ED14FEAD07C07
:10438000B2F17F4F0CEB4C0C0CF1020C08BF4CEB64
:10439000D17C04E04FF0080C01E04FEAD17C0CEB3B
:1043A0004C0324FA03F404F00704B4F1040C06D21D
:1043B0000EEB840CBDE810404CF0010C6047DFE8C8
:1043C0000CF0070802024FF00040A0F5800010BD7D
:1043D0000846420018BFD2F1807288BF00F000404A
:1043E00010BDFF2141EAD050C005704751EA000CD2
:1043F00000F113801CF5000F58BFBCF5000F01D46D
:104400008142704707D711F5000F58BF10F5000F14
:1044100015D481427047894270471CF5000F04D5BE
:10442000BCF5000FF7D5884270474FF0807C1CEB3D
:10443000410F38BF1CEB400F01D28842704780EA21
:10444000010081EA000180EA0100FFF7F8BE0000E8
:1044500090EA010F48BF81F000413FF56AAD421A72
:1044600004D882F00042A0EB020011444FEAD0527F
:104470004FF07F4C1CEA410FA2EBD15318BF9CEACE
:10448000026F4AD04FF0004C4CEA00204CEA012168
:1044900021FA03FCB0EB0C0C0FD412F0FE0F36D057
:1044A0005FEA4C001DD5001240EBC25038BF704788
:1044B0001CF03F0F18BF70470BE0A2F101025FEA4A
:1044C0001C2040EBC25038BF70471CF07F0F18BF54
:1044D0007047C3F12003994014BF401E20F0010033
:1044E000704780084FEA122308BF7047B0FA80FC7B
:1044F000A2EB0C02CCF1280C60FA0CF093EA122F1C
:1045000004BF00EBC25070474FEAC3707047130AF4
:104510005FEADC1008BF7047F6E79CEA026F04D040
:1045200010EA5C0F08BF0020704710B5FFF713FFBB
:1045300040DFF63E81F000407047FCF7CCB8000049
:10454000000000000000000000000000000000006B
:1045500000F80000000000000033300000000010F0
:104560000C06100C0600000000000000000040C017
:104570007840C0784000043F04043F040400007009
:1045800088FC08300000001820FF211E0000F00801
:10459000F000E018000000211C031E211E0000F0A6
:1045A0000888700000001E212324192721101016EE
:1045B0000E000000000000000000000000000000ED
:1045C00000E018040200000000071820400000026C
:1045D0000418E000000000402018070000004040E0
:1045E00080F0804040000202010F01020200000042
:1045F00000F0000000000101011F010101000000A6
:1046000000000000000080B070000000000000000A
:104610000000000000000001010101010101000093
:10462000000000000000003030000000000000002A
:10463000000080601804006018060100000000E01F
:1046400010080810E000000F102020100F000010CC
:1046500010F8000000000020203F20200000007023
:10466000080808887000003028242221300000301B
:104670000888884830000018202020110E00000013
:10468000C02010F8000000070424243F240000F894
:104690000888880808000019212020110E0000E079
:1046A000108888180000000F112020110E0000381B
:1046B0000808C83808000000003F00000000007033
:1046C000880808887000001C222121221C0000E0BC
:1046D00010080810E0000000312222110F00000035
:1046E00000C0C000000000000030300000000000EA
:1046F000008000000000000080600000000000005A
:1047000080402010080000010204081020004040F2
:104710004040404040000404040404040400000835
:1047200010204080000000201008040201000070EA
:1047300048080808F0000000003036010000C030D2
:10474000C828E810E0000718272423140B000000F5
:10475000C038E0000000203C23020227382008F87F
:10476000888888700000203F202020110E00C03073
:10477000080808083800071820202010080008F84A
:1047800008080810E000203F202020100F0008F843
:104790008888E8081000203F20202320180008F80F
:1047A0008888E8081000203F200003000000C03087
:1047B00008080838000007182020221E020008F808
:1047C00008000008F808203F210101213F200008CF
:1047D00008F8080800000020203F2020000000000A
:1047E0000808F8080800C08080807F00000008F8F2
:1047F00088C028180800203F20012638200008F82B
:10480000080000000000203F20202020300008F891
:10481000F800F8F80800203F003F003F200008F8AB
:1048200030C00008F808203F200007183F00E010C3
:1048300008080810E0000F10202020100F0008F8D2
:1048400008080808F000203F210101010000E010E5
:1048500008080810E0000F18242438504F0008F80A
:10486000888888887000203F2000030C302000706A
:104870008808080838000038202121221C00180868
:1048800008F8080818000000203F2000000008F881
:1048900008000008F808001F202020201F000878CA
:1048A000880000C83808000007380E010000F8082A
:1048B00000F80008F800033C0700073C0300081854
:1048C00068808068180820302C03032C30200838BA
:1048D000C800C83808000000203F20000000100871
:1048E0000808C838080020382621202018000000B9
:1048F00000FE020202000000007F40404000000C69
:1049000030C000000000000000010638C0000002B6
:104910000202FE000000004040407F000000000056
:104920000402020204000000000000000000000079
:104930000000000000008080808080808080000275
:104940000204000000000000000000000000000061
:104950008080808000000019242222223F2008F855
:10496000008080000000003F112020110E00000098
:10497000008080800000000E112020201100000027
:1049800000808088F800000E112020103F200000D9
:10499000808080800000001F2222222213000080DD
:1049A00080F0888888180020203F20200000000028
:1049B000808080808000006B94949493600008F85D
:1049C000008080800000203F210000203F200080E8
:1049D0009898000000000020203F202000000000E8
:1049E00000809898000000C08080807F000008F858
:1049F000000080808000203F24022D30200000082D
:104A000008F8000000000020203F202000008080E7
:104A1000808080808000203F20003F20003F8080F9
:104A2000008080800000203F210000203F20000007
:104A3000808080800000001F202020201F008080B8
:104A400000808000000080FFA12020110E000000E7
:104A5000008080808000000E112020A0FF808080D8
:104A600080008080800020203F2120000100000085
:104A7000808080808000003324242424190000805A
:104A800080E0808000000000001F20200000808067
:104A9000000000808000001F202020103F20808028
:104AA00080000080808000010E30080601008080B8
:104AB0000080008080800F300C030C300F000080DD
:104AC0008000808080000020312E0E312000808008
:104AD00080000080808080818E7018060100008038
:104AE0008080808080000021302C22213000000056
:104AF0000000807C020200000000003F40400000F7
:104B00000000FF00000000000000FF0000000002A5
:104B1000027C800000000040403F000000000006D2
:104B20000101020204040000000000000000000077
:104B300002400000000000A000000000054000004E
:104B4000000000C8000000000C4000000000409C75
:104B500000000000194000000020BCBE0000000062
:104B600034400000BFC91B8E00000004B5400000A7
:104B7000504BCFD06607E2CF010000006C4100002F
:104B80003E8251AADFEEA73401000000D9420000A6
:104B9000DCB5A0E23A301F97FFFFFFFFB4450000ED
:104BA000FD25A0C8E9A3C14FFFFFFFFFFF3F0000A5
:104BB0000000008000000000FF3F000000000080B7
:104BC00000000000004C000800000020640000000D
:104BD00028010008644C0008640000202C0B000031
:104BE000440100081C00000043000000F8FFFFFF24
:104BF0000C0000000E0000000F0000002E0000005E
:104C000000000000000000000100000000000000A3
:104C10000000000000000000000000000000000094
:104C20000000000000000000000000000000000084
:104C3000F4012003E803C8002C0196005E01000087
:104C40000000000000000000010203040102030450
:104C5000060708090204060800000000F40120030A
:044C6000E803000065
:04000005080000ED02
:00000001FF
