:020000040800F2
:1000000078060020AD010008DB190008B7150008CC
:10001000D71900084B140008D51F00080000000085
:10002000000000000000000000000000CD1D0008DE
:100030004F14000800000000B51C0008B91E00089D
:10004000C7010008C7010008C7010008C701000870
:10005000C7010008C7010008C7010008C701000860
:10006000C7010008C7010008C7010008C701000850
:10007000C7010008C7010008C7010008C701000840
:10008000C7010008C7010008C7010008C701000830
:10009000C7010008C7010008C7010008C701000820
:1000A000C7010008C7010008C7010008C701000810
:1000B000C7010008C7010008C7010008C701000800
:1000C000C7010008C7010008C7010008C7010008F0
:1000D000C7010008C7010008C70100081D1F00086C
:1000E000C7010008C7010008C701000800F002F8B6
:1000F00000F04DF80AA090E8000C82448344AAF175
:100100000107DA4501D100F042F8AFF2090EBAE872
:100110000F0013F0010F18BFFB1A43F0010318473B
:10012000082D0000282D0000103A24BF78C878C19F
:10013000FAD8520724BF30C830C144BF04680C60ED
:10014000704700000023002400250026103A28BF35
:1001500078C1FBD8520728BF30C148BF0B60704739
:10016000662902F00083642900F07C80782900F081
:10017000B580002070471FB500F02AFC0400002065
:10018000002102F02FF8E0601FBD10B510BD00F097
:100190001FFD1146FFF7EFFF01F03AFF00F03DFDB4
:1001A00003B4FFF7F2FF03BC00F080FD094880476D
:1001B00009480047FEE7FEE7FEE7FEE7FEE7FEE749
:1001C000FEE7FEE7FEE7FEE704480549054A064B61
:1001D00070470000BD1E0008ED00000878000020F8
:1001E0007806002078020020780200200FB41CB5A9
:1001F000074B06AA7B4469460090059800F0CFFBA8
:100200000020694600F0DEFB1CBC5DF814FB00001A
:10021000CD07000070B5044685690068C10601D5A8
:10022000302600E02026C00707D070BDD4E90121A8
:1002300030469047206A401C20626D1EF6D570BD86
:1002400070B5044685690078C00707D170BDD4E950
:10025000012120209047206A401C20626D1EF6D5A7
:1002600070BD00002DE9F041064600241068752994
:10027000314616A510D0AFF30080002802DA4042C4
:1002800013A507E031688A0701D512A502E04907E6
:1002900004D511A5012401E0AFF3008000210A225A
:1002A00006F1240709E0B0FBF2FCB0FBF2F302FB1D
:1002B0001C00303078541846491C0028F3D12346DE
:1002C0002A463046BDE8F04100F0FBB800000000CF
:1002D0002D0000002B0000002000000070B5044637
:1002E0000D4621461068AFF300802188090502D52C
:1002F0000F4A7A4402E00E4A7A440E32002104F199
:10030000240305E000F00F060009965D5E54491CC9
:100310000028F7D120780023000704D5702D02D0E3
:1003200009B1022311322046BDE8704000F0C9B87F
:10033000642A00002DE9F05F894604464FF0000A68
:10034000DFF874B1FB44C0F820A02046E16888477C
:10035000002874D0252806D0D4E901219047206ACE
:10036000401C2062F1E700265F462046E16888478E
:100370002028054607DB312D05D2781910F8200C0E
:1003800008B10643F1E7B00701D526F00406C4F82A
:100390001CA00027C4F818A02A2D09D0284601F077
:1003A0002FFE38B304EB8708303DC8F8185019E029
:1003B00059F8041B204604EB87029161E1688847E5
:1003C000012F054618D1E069002820DA26F0200622
:1003D0001DE0D8F8180000EB800005EB4000303835
:1003E000C8F818002046E1688847054601F008FE75
:1003F0000028EED1012F0AD02E2D08D12046E16829
:1004000088477F1C0546022F46F02006C4DBA06902
:10041000002803DA404246F00106A061F00701D04F
:1004200026F010066C2D0BD0682D09D04C2D39D03C
:100430006A2D35D0742D35D07A2D33D016E038E0C2
:10044000E1682F4620468847B842054609D16C2FFF
:1004500026D04FF48060E168064320468847054671
:1004600004E06C2F1AD04FF4807006430DB3A5F151
:100470004100192802D8203546F400664A4629462C
:10048000204626604E46FFF76BFE80B101280BD058
:10049000F61D26F0070000F1080956E74020E4E7C2
:1004A0008020D8E70020D6E706F104094DE728466A
:1004B00052E7206ABDE8F09F3A2A00007047704773
:1004C00070472DE9F0470D4699469246044600F1E3
:1004D00024080168880604D5E06921F01001216034
:1004E00000E00120A84201DD471B00E00027A169D0
:1004F0007A1902EB0900081AA0612078C00602D41C
:100500002046FFF787FE002608E0D4E901211AF80B
:1005100006009047206A401C761C20624E45F4DBA2
:100520002078C0060AD52046FFF774FE06E0D4E91D
:10053000012130209047206A401C2062381EA7F11C
:100540000107F4DC07E0D4E9012118F80500904721
:10055000206A401C2062281EA5F10105F3DC20461C
:10056000FFF76EFE2078000602D50220BDE8F08776
:100570000120FBE770472DE9FF4F0C461E464FF068
:10058000FF378BB0D2E90001DDF860800A908A461F
:10059000C1F30A5505B93D46002108464FF0000059
:1005A000BAF1000F00F4400005DA00EB80004FF4D0
:1005B000400101EA50004FEA9059B9F1010F00DD06
:1005C000B9460A9850EA4A000ED044F61050A5F2F7
:1005D000FF3545432F14B8F1000F1ED07542291E78
:1005E0001EDDC9F100021CE0B8F1010F4FF0000060
:1005F00001D0302103E0F24305E02154401CB04219
:10060000FBDB30460022002121540B99C1F8088001
:10061000C1E900200FB0BDE8F08FBD1B6D1CDEE707
:100620004A4600DA694206A800F05CFA06AB93E895
:10063000070003AB83E8070050460A9900F03DFB32
:100640008DE80700A0F500501F3800900398002D9A
:100650000ADD42F21F014A460844002303A9039021
:10066000684600F0A6FD09E0A0F500504A461F3894
:10067000002303A90390684600F0B0FD8DE8070051
:100680000004000C03D04FF0FF30410800E010469A
:10069000B8F1000F03D00022009215461EE0751E2F
:1006A00005D400F099F9303262556D1EF9D5B34684
:1006B0000122084302D000227F1C04E02078302869
:1006C00001D100227F1E002A099784D01DE0112D40
:1006D00007DA00F081F9303262556D1C50EA0102F0
:1006E000F5D1084302D00098C8B10EE00021681E81
:1006F00005E0235C625C63542254401E491C814225
:10070000F7DBAB46A81B401E0990002004F80B0045
:100710000B98099AC0F80880C0E9002B7AE71126E7
:100720004FF0000857E72DE9F04F88460446D21DE8
:1007300022F0070191B0D1E90001CDE90A0101F0F1
:100740004BFC02460B98C00F01D02D2007E020681B
:10075000810701D52B2002E0202101EAC000032AF5
:10076000099001D0072A05DB03464146204600F0E8
:1007700079F90BE12078800601D5E06900E00620D8
:10078000B8F1650F814606D0B8F1660F18D0B8F100
:10079000670F70D131E00020B9F1110F009001DB3B
:1007A000112301E009F101030AAA01A90CA8FFF72E
:1007B000E2FEDDE90C70002609F10105834647E001
:1007C00001204B4600904FF000470AAA01A90CA84F
:1007D000FFF7D1FEDDE90DB00C995D46002610B99A
:1007E00009F101000D18B9EB050003D4C0F1FF3683
:1007F00009F10105A5EB09002BE0B9F1010F01DAC0
:100800004FF001090020B9F1110F0090484601DDB9
:10081000112300E003460AAA01A90CA8FFF7ABFECA
:10082000DDE90C704D4600268346207800070AD487
:10083000AB4500DA5D4601A8012D04DD411911F830
:10084000011C302907D04F4502DA17F1040F04DAF2
:10085000012082460FE06D1EEEE7002F02DCED1B4B
:100860003E4403E0781CA84200DD7D1CB81B00F16B
:10087000010A4FF000472078000703D4AA4501DBA6
:100880004FF0FF3A0021B7F1004F0DF143088DF80A
:10089000431024D002202B23002F01DA7F422D2386
:1008A0000A21021EA0F1010000DC5FB197FBF1FC00
:1008B00097FBF1F201FB1C7C17460CF1300C08F899
:1008C00001CDEEE7A8F1010003702188090501D5EB
:1008D000452100E06521A0F1010800F8011C0998FC
:1008E0000FA9A1EB0807FF1D00B10120411901EB81
:1008F000EA70A1693844081A401EA0612078C00639
:1009000002D42046FFF786FC099828B1D4E90121DA
:100910009047206A401C20622078C00622D52046DD
:10092000FFF778FC1EE0002E04DBB34502DD01A8D2
:10093000805D00E03020D4E901219047206A401C0E
:100940002062761CAAF101005FEA000A0AD100F0D9
:100950003FF8C0680168405CD4E901219047206AF3
:10096000401C2062281EA5F10105DCDC07E0D4E96B
:10097000012118F8010B9047206A401C2062381EA4
:10098000A7F10107F3DC2046FFF75AFC032011B062
:1009900041E6000001694A1C02610878704700B511
:1009A0008FB0CDE901310021059105497944CDE9A8
:1009B000031011466846FFF7BDFC0FB000BD0000F4
:1009C000E5FFFFFF0A6802F8010B0A6070470000AC
:1009D000004870473800002030B5B0F10A024FEAF5
:1009E000900E71F100034EEA817EB0EB0E0061EBD8
:1009F00091014FEA101E4EEA017E10EB0E0041EB12
:100A000011114FEA102E4EEA016E10EB0E0041EB71
:100A100011214FEA104E4EEA014E10EB0E0041EB51
:100A20001141401841F100014FEAD00040EA417005
:100A30004FEAD10110EB80054FEA810444EA90743B
:100A400044EB01046D1944EB0404521BA3414FF025
:100A5000000348BF0A3200D530BD401C41F10001FF
:100A600030BD00002DE9F0411F4604460326016811
:100A7000072A01F4006004DB08B116A505E016A5FD
:100A800003E008B115A500E015A521F010002060D5
:100A9000A069C01EA0610FB1401EA0612046FFF7F3
:100AA000B9FB4FB1D4E9012138469047206A401C78
:100AB0002062C01C206206E0206AFAE7D4E9012126
:100AC00015F8010B9047761EF8D22046FFF7B8FBC9
:100AD000BDE8F0814E414E006E616E00494E460009
:100AE000696E66002DE9F047814616468AB03548A2
:100AF00078440DC88DE80D0032487844801C03AC62
:100B00000DC884E80D0041F69B300844372190FB66
:100B1000F1F290FBF1F5A5F1800501FB12041B3CFD
:100B200002D56442012000E00020DFF898A0804652
:100B30000027FA44AAF1BE0A0EE0E0070AD03246C6
:100B4000684607EB470101230AEB810100F046FBF1
:100B50008DE8070064107F1C002CEED1194F7F44F4
:100B6000AE3F19E0E80715D007EB04100DF1180AA5
:100B700090E80E008AE80E00C068F04201D1981992
:100B800008903246012306A903A800F027FB03AB17
:100B900083E807006D10641C002DE3D14FF00103C2
:100BA00032466946B8F1000F03A802D000F001FBFD
:100BB00001E000F013FBC9E90001C9F808200AB000
:100BC000BDE8F0871C230000004870471800002093
:100BD0007546FFF7F9FFAE4605006946534620F01B
:100BE0000700854618B020B5FFF7EEFABDE82040B3
:100BF0004FF000064FF000074FF000084FF0000BD9
:100C000021F00701AC46ACE8C009ACE8C009ACE88B
:100C1000C009ACE8C0098D46704710B50446AFF373
:100C200000802046BDE81040FFF7BABA4FF0013C03
:100C300050F8042B51F8043B9A4221D1A2EB0C034B
:100C4000934313EACC1317D150F8042B51F8043B0B
:100C50009A4215D1A2EB0C03934313EACC130BD1A8
:100C600050F8042B51F8043B9A4209D1A2EB0C0333
:100C7000934313EACC13DBD04FF00000704700BF62
:100C8000D01A01BAB1FA81F101F0180122FA01F08B
:100C9000CB40C1F12001DBB2C0B2C01A2CFA01F383
:100CA000D11A914311EAC311E6D1704701491820C6
:100CB000ABBEFEE72600020070475FEA400C08BFAB
:100CC00091F0000F4FEA8C234FEAC12243EA5151C1
:100CD0004FEA1C5018BF00F5F0404FEA300018BF33
:100CE00041F000415FEA6C5C00F02980BCF1FF3FFD
:100CF00008BF40F080407047130C06BF12044FF04D
:100D0000100C4FF0000C130E04BF12020CF1080C73
:100D1000130F04BF12010CF1040C930F04BF9200D7
:100D20000CF1020CD30F04BF52000CF1010C114660
:100D30004FF00002A0F11F00A0EB0C00704711F073
:100D4000004F08BF704731F000413FF4D5AF0B0CA6
:100D500006BF09044FF0100C4FF0000C0B0E04BF3F
:100D600009020CF1080C0B0F04BF09010CF1040C73
:100D70008B0F04BF89000CF1020CCB0F04BF49009C
:100D80000CF1010CCCF12003A0EB0C0022FA03F3D0
:100D900002FA0CF241EA030100F10100704720F071
:100DA0007F4C80EA030023F07F47ACEB070303F599
:100DB0007C5300F0004003F1FF032DE980494FEA26
:100DC000154B09B44FEA144325EA0B4E24EA0348B5
:100DD0000FF2042606EB132749083E785FEA320239
:100DE00003FB0667C7F5000707FB06F64FEA543713
:100DF0004FEAD64606F1020607FB066CCCF1005C12
:100E00004FEA1C472CEA074C07FB06F40CFB06F5DF
:100E100004EB15464FEA961634BF00204FF0004011
:100E20004FEAD13706FB07FC4FEA1C4C0CFB0BF7D3
:100E3000D21B03FB0CF761EB07010CFB0EF7B0EBC9
:100E4000074072EB17420CFB08F734BFA2EB0742D6
:100E5000B2EB074261EB17414FEA0C444FEA9107AE
:100E600006FB07FC4FEA1C4C0CFB0BF7B0EBC74032
:100E700072EB573203FB0CF734BFA2EBC742B2EB65
:100E8000C74261EB57310CFB0EF7B0EBC70072EBBA
:100E900057720CFB08F734BFA2EBC702B2EBC702D4
:100EA00061EB5771039F4FEA816141EA921104EBB4
:100EB000CC044FEAD1374FEA826206FB07FC42EAD4
:100EC00090124FEA80604FEA1C4C0CFB0BF7D21BD0
:100ED00003FB0CF761EB07010CFB0EF7B0EB0740CF
:100EE00072EB17420CFB08F734BFA2EB0742B2EBE0
:100EF000074261EB17414FEA8C554FEA910704EB2B
:100F00009C2406FB07FC4FEA1C4C0CFB0BF7B0EBD8
:100F1000C74072EB573203FB0CF734BFA2EBC7425A
:100F2000B2EBC74261EB57310CFB0EF7B0EBC700D9
:100F300072EB57720CFB08F734BFA2EBC702B2EB9F
:100F4000C70261EB577115EB4C254FEA816141EA0D
:100F500092114FEA82624FEAD13742EA901206FBC1
:100F600007FC44F100044FEA80604FEA1C4C0CFB84
:100F70000BF7D21B03FB0CF761EB07010CFB0EF721
:100F8000B0EB074072EB17420CFB08F734BFA2EB43
:100F90000742B2EB074261EB174115EB1C154FEA14
:100FA000813141EA92414FEA823242EA90424FEA6D
:100FB00080304FEA0C7644F1000448EA03434EEADD
:100FC0000B484FF0000EB2EB080C71EB030724BF87
:100FD000624639464EEB0E0E4FF0000B00185241A0
:100FE00049414BEB0B0BB2EB080C71EB03077BF1A8
:100FF000000B24BF624639464EEB0E0E4FF0000B3D
:101000000018524149414BEB0B0BB2EB080C71EB52
:1010100003077BF1000B24BF624639464EEB0E0EF0
:1010200051EA020718BF46F0010616EB0E7655F19D
:10103000000254F1000103D5BDE88901BDE8008834
:10104000BDE88901BDE80048B619524141EB0101F4
:10105000A3F10103704780807F7E7D7C7B7A797865
:10106000777676757473727171706F6E6E6D6C6C6D
:101070006B6A6A696868676666656464636362610F
:101080006160605F5F5E5E5D5D5C5C5B5B5A5A5990
:1010900059585857575656555555545453535252FC
:1010A0005251515050504F4F4F4E4E4D4D4D4C4C54
:1010B0004C4B4B4B4A4A4A4949494848484747479D
:1010C00047464646454545444444444343434342DA
:1010D000424242414141002B9C4630D477002BD004
:1010E0001CB54FEA370703B44FF010004FF0100162
:1010F000BAF1000F06D0BCF1000FDCBF40F00800D1
:1011000040F008014FF000000FBCBDE810400BF1AB
:10111000010BBBF1010F08BF5FEA170722BF12F1F5
:10112000010211F101014FF0004143F1000300F011
:10113000004043EA00007047F9D35708D0E746EA79
:10114000064613F1400F4FEA16461FDD13F1200F3C
:10115000DFBF16430A46002120335B42BED0C3F1F5
:10116000200746EA064602FA07F74FEA164646EA1D
:101170000706C3F1200722FA03F201FA07F721FA62
:1011800003F14FF0000342EA0702A7E746EA02062E
:1011900046EA06464FEA164646EA0106BCBF46EA5C
:1011A0000646360C4FF000034FF000024FF00001EE
:1011B00094E72DE9804C9A46934670B491E8380044
:1011C00007C831EA400C48BF34EA430C03D5FFF7A7
:1011D000E6FDFFF780FFF0BCBDE8008C2DE9804CF8
:1011E0009A46934670B491E8380007C810F0804FD3
:1011F00008BF13F0804F03D100F005F8FFF76BFF35
:10120000F0BCBDE8008C20F07F4780EA030023F0AB
:101210007F4C07EB0C03A3F57C5300F00040A3F1D7
:10122000FE0392F0000F00F0B38095F0000F00F085
:1012300077802DE901494FEA11404FEA144621EA2F
:10124000004800FB06FC24EA064708FB06F607FBFD
:1012500008F800FB07F718EB06484CEB164C4FEA72
:10126000124B18EB07484FEA15464CEB174022EAA1
:101270000B4E0BFB06FC25EA06470EFB06F607FBAA
:101280000EFE0BFB07F71EEB064E4CEB164C4FF019
:1012900000061EEB074E4CEB174B18EB0B0840F10A
:1012A000000018EB0E0B58EB000840F100008F1AFD
:1012B0004FF000013CBFC943661B14BFB5EB040CE3
:1012C00000213CBFC943F61B4FEA17444EEA8E0E7D
:1012D00027EA04454FEA1C4704FB07622CEA074C47
:1012E00005FB07F70CFB05F604FB0CFC16EB0746A9
:1012F00042EB174216EB0C4642EB1C421BEB060678
:1013000058EB0202414146EA9E0601D5BDE801893B
:10131000B619524141EB0101A3F10103BDE8018976
:101320004FEA14454FEA114724EA054621EA074CE3
:1013300005FB07F406FB07F70CFB06F105FB0CFCAD
:1013400011EB074144EB17444FEA124711EB0C41F4
:1013500044EB1C4422EA074C05FB07F206FB07F7A7
:101360000CFB06F605FB0CFC16EB074642EB17429E
:1013700016EB0C4642EB1C456A1854F1000148BFBD
:101380007047B619524141EB0101A3F101037047C7
:1013900095F0000F37D04FEA11424FEA144721EA87
:1013A000024624EA074C02FB07F106FB07F70CFB99
:1013B00006F402FB0CFC14EB074441EB17414FEA27
:1013C000154714EB0C4441EB1C4125EA074C02FB8A
:1013D00007F506FB07F70CFB06F602FB0CFC16EB09
:1013E000074645EB174516EB0C4645EB1C42121918
:1013F00051F1000148BF7047B619524141EB01015C
:10140000A3F1010370474FEA14454FEA114724EA5C
:10141000054621EA074C05FB07F106FB07F70CFB25
:1014200006F24FF0000605FB0CFC12EB074241EB05
:10143000174112EB0C4251EB1C4148BF7047921808
:1014400041EB0101A3F10103704700BFFEE77047C4
:1014500000B5034603E04FF47A7000F005F8181E5B
:10146000A3F10103F7D100BD00EBC001C9004FF0AB
:10147000E0225161002191610521116100BF4FF00F
:10148000E021096901F480310029F8D004214FF0EE
:10149000E022116170472DE9F04102460025002647
:1014A000002000230024002791F803C00CF00F0552
:1014B00091F803C00CF0100CBCF1000F03D091F8B0
:1014C00002C04CEA050591F800C0BCF1000F31D014
:1014D000146800202BE04FF0010C0CFA00F3B1F877
:1014E00000C00CEA03069E4220D183004FF00F0C8F
:1014F0000CFA03F7BC4305FA03FC4CEA040491F828
:1015000003C0BCF1280F06D14FF0010C0CFA00FC0F
:10151000C2F814C00AE091F803C0BCF1480F05D12D
:101520004FF0010C0CFA00FCC2F810C0401C082857
:10153000D1D31460B1F800C0BCF1FF0F34DD5468A2
:1015400000202EE000F1080C4FF0010808FA0CF31F
:10155000B1F800C00CEA03069E4221D183004FF08F
:101560000F0C0CFA03F7BC4305FA03FC4CEA040425
:1015700091F803C0BCF1280F05D100F1080C08FA5E
:101580000CF8C2F8148091F803C0BCF1480F07D1E1
:1015900000F1080C4FF0010808FA0CF8C2F81080AE
:1015A000401C0828CED35460BDE8F0810AB1016127
:1015B00000E04161704700BFFEE721B1028842F4BC
:1015C0008062028004E002884FF6FF331A400280F6
:1015D000704770B502460024002500230020958A3C
:1015E000138B1B0445EA030626F07F4404EA010638
:1015F0008E4201D1012000E0002070BD21B102889F
:1016000042F00102028004E002884FF6FE731A40A5
:101610000280704721B1028842F48072028004E0A7
:1016200002884FF6FF631A400280704721B102889A
:1016300042F40072028004E002884FF6FF531A4021
:10164000028070470CB502460020002301930093EE
:1016500000920B0F019321F07F41019B1BB1009B76
:101660001433009303E0090C009B18330093009B94
:101670001B680B400BB1012000E000200CBD0000F6
:1016800010B586B004460121082000F025FB012199
:10169000480500F011FBC020ADF814001C208DF8A7
:1016A000170003208DF8160005A90F48FFF7F3FE79
:1016B00001940020ADF808004BF6FF70ADF80A0069
:1016C0004FF48060ADF80E000001ADF8100000206E
:1016D000ADF80C0001A9054800F0F8F80121034815
:1016E000FFF78CFF06B010BD000C01400054004015
:1016F0002DE9F041074688461646002407E0601CA5
:1017000084B242F21070844201DDBDE8F0814FF4F2
:1017100000313448FFF796FF0028F0D1012131480D
:10172000FFF778FF00240AE0601C84B242F21070D8
:10173000844204DD01212B48FFF778FFE5E72A49C1
:101740002848FFF746FF0128EED1012239462548F7
:1017500000F036F900240AE0601C84B242F21070F6
:10176000844204DD01211F48FFF760FFCDE71E49D9
:10177000491C1C48FFF72DFF0128EDD1002525E06D
:10178000701EA84203D100211648FFF716FF00245F
:101790000EE0601C84B242F21070844208DD012128
:1017A0001048FFF743FF01210E48FFF706FFACE7A3
:1017B0000D493F310B48FFF70CFF0128E9D10948DB
:1017C00000F0FAF808F80500681C85B2B542D7DBCE
:1017D00001210448FFF72AFF01210248FFF7EDFE2F
:1017E00000BF92E700540040010003002DE9F041E2
:1017F00006460F469046002407E0601C84B242F281
:101800001070844201DDBDE8F0814FF400312C48B6
:10181000FFF718FF0028F0D101212948FFF7FAFE51
:1018200000240AE0601C84B242F21070844204DD9D
:1018300001212348FFF7FAFEE5E722492048FFF798
:10184000C8FE0128EED1002231461D4800F0B8F84C
:1018500000240AE0601C84B242F21070844204DD6D
:1018600001211748FFF7E2FECDE717491448FFF7BB
:10187000B0FE0128EED1002519E0795D104800F096
:10188000A8F800240AE0601C84B242F2107084427E
:1018900004DD01210A48FFF7C9FEB4E70A49891CA3
:1018A0000748FFF796FE0128EDD1681C85B2454533
:1018B000E3DB01210248FFF7B9FE00BFA3E7000008
:1018C0000054004001000300820007002DE9F043AE
:1018D00085B004460D460026B1460427DFF8CC80CB
:1018E000A6884FF6C0700640684600F005FADDF89D
:1018F00008802F48B8FBF0F01FFA80F946EA090685
:10190000A68020884FF6FE710840208000262949D5
:10191000286888420CD828684000B8FBF0F087B2ED
:10192000042F00DA04273E4309F10100208427E058
:10193000E8884BF6FF71884206D1286800EB40002A
:10194000B8FBF0F087B209E0286800EBC00101EBBA
:101950000010B8FBF0F087B247F48047C7F30B00E4
:1019600008B947F0010747F4004006434FF496706A
:1019700009FB00F04FF47A7190FBF1F0401C2084D9
:10198000A683208840F00100208026884FF6F5309D
:101990000640A8886989084306432680A8892989C2
:1019A0000843208105B0BDE8F083000000127A00F2
:1019B00040420F00A08601000146088AC0B270476D
:1019C00012B141F0010102E04FF6FE7319400182AD
:1019D00070470182704700BFFEE7704770B5002472
:1019E0000EE00021204600F0E6F8002504E000208B
:1019F00000F050F9681CC5B2802DF8DB601CC4B241
:101A0000082CEEDB70BD000008B50121082000F0B5
:101A100063F914208DF8030003208DF802004FF4C1
:101A20008070ADF8000069460A48FFF734FD4FF4B6
:101A30000070ADF8000069460648FFF72CFD012252
:101A400011020448FFF7B2FD012251020148FFF7DD
:101A5000ADFD08BD000C014070B50546002415E041
:101A60008020204100EA05024FF400710E48FFF784
:101A70009DFD012211020C48FFF798FD00224FF452
:101A800080710948FFF792FD601CC4B2082CE7DBA7
:101A9000012211020448FFF789FD00224FF48071F2
:101AA0000148FFF783FD70BD000C014010B5012215
:101AB00051020A48FFF77AFD012211020748FFF799
:101AC00075FD00224FF400710448FFF76FFD0022FE
:101AD0004FF480710148FFF769FD10BD000C014013
:101AE00010B500224FF400710648FFF75FFD012298
:101AF00011020448FFF75AFD012251020148FFF785
:101B000055FD10BD000C014070B5002406E0002515
:101B100000E06D1CB5F57A7FFBD3641CB4F57A7FC9
:101B2000F5D3FFF771FFAE2000F0A4F8D52000F048
:101B3000A1F8802000F09EF8A82000F09BF83F203C
:101B400000F098F8D32000F095F8002000F092F80B
:101B5000402000F08FF8A12000F08CF8C82000F0A1
:101B600089F8DA2000F086F8122000F083F881204E
:101B700000F080F8CF2000F07DF8D92000F07AF84E
:101B8000F12000F077F8DB2000F074F8302000F04E
:101B900071F8A42000F06EF8A62000F06BF88D20FC
:101BA00000F068F8142000F065F8AF2000F062F84B
:101BB000FFF714FF70BD70B505460C4645F0B00048
:101BC00000F058F8102141EA141000F053F804F026
:101BD0000F0000F04FF870BD2DE9F04105460E46AC
:101BE0001746721ED206110E6A1E5206100EFFF71D
:101BF000E2FF002409E0A7F12001134A02EB0111E2
:101C0000085D00F047F8601CC4B2082CF3DB721EBC
:101C1000D206110E6A1E012303EB4202D0B2FFF777
:101C2000CAFF00240BE0A7F12001074A02EB0112D2
:101C300004F10801505C00F02DF8601CC4B2082CBF
:101C4000F1DBBDE8F08100006A2700082DE9F041D2
:101C500007460E461546002407E02A5D3019C1B23A
:101C60003846FFF7B9FF601CC4B2285D0028F4D1E4
:101C7000BDE8F08110B50446FFF718FF7820FFF7A4
:101C8000EBFE0020FFF7E8FE2046FFF7E5FEFFF73A
:101C900027FF10BD10B50446FFF708FF7820FFF7B7
:101CA000DBFE4020FFF7D8FE2046FFF7D5FEFFF70A
:101CB00017FF10BD7047000029B1064AD2690243E0
:101CC000044BDA6104E0034AD2698243014BDA61D2
:101CD000704700000010024029B1064A9269024391
:101CE000044B9A6104E0034A92698243014B9A6172
:101CF000704700000010024030B50021002200248F
:101D000000232D4D6D6805F00C0121B1042905D08B
:101D1000082923D105E0294D056022E0274D056003
:101D20001FE0254D6D6805F47012234D6D6805F4B4
:101D30008034022505EB92421CB9214D55430560C4
:101D40000BE01D4D6D6805F400351DB11C4D55436C
:101D5000056002E0194D5543056002E0174D05602E
:101D600000BF00BF144D6D6805F0F0010909154D65
:101D70006B5C0568DD4045600F4D6D6805F4E06102
:101D8000090A104D6B5C4568DD4085600A4D6D6841
:101D900005F46051C90A0B4D6B5C4568DD40C560B8
:101DA000054D6D6805F44041890B074D6B5CC568B6
:101DB000B5FBF3F5056130BD0010024000127A005A
:101DC00000093D000000002010000020704710B501
:101DD00000F002F810BD00000CB50020019000904A
:101DE0003348006840F480303149086000BF304813
:101DF000006800F4003000900198401C01900098A9
:101E000018B90198B0F5A06FF1D12948006800F425
:101E1000003010B10120009001E0002000900098F7
:101E2000012843D12348006840F010002149086090
:101E30000846006820F0030008600846006840F08B
:101E4000020008601A48406819494860084640681E
:101E500048600846406840F4806048600846406832
:101E600020F47C1048600846406840F4E810486060
:101E70000846006840F08070086000BF0C480068A9
:101E800000F000700028F9D00948406820F00300F5
:101E9000074948600846406840F00200486000BFBB
:101EA0000348406800F00C000828F9D10CBD000080
:101EB00000100240002002407047000010B5134897
:101EC000006840F001001149086008464068104968
:101ED00008400E494860084600680E4908400B4912
:101EE00008600846006820F48020086008464068C2
:101EF00020F4FE0048604FF41F008860FFF767FF82
:101F00004FF000600449086010BD0000001002405E
:101F10000000FFF8FFFFF6FE08ED00E010B540F20C
:101F200025510A4800F027F801280DD1074800F094
:101F30004CF807490870084600780649087040F2D6
:101F40002551024800F008F810BD0000004800408C
:101F5000150000201400002010B50022002340F6D8
:101F60006A14A14200D100BF0A1201249440A3B216
:101F7000DC43048010BD70B5024600240023002518
:101F8000002040F66A16B14200D100BFC1F34215ED
:101F900001F01F03012606FA03F3012D02D19689F1
:101FA000334006E0022D02D1168A334001E0968AC2
:101FB00033400C12012606FA04F41688344013B19B
:101FC0000CB1012000E0002070BD01468888C0F3FC
:101FD0000800704700BFFEE7490050EAC12018BF63
:101FE00004204A0D18BF40F0010040F2FF72B2EB2E
:101FF000515F08BF40F00200012808BF052070476C
:1020000030380A2801D201207047002070470000B4
:102010008CB0FFF779FDC820FFF71AFAFFF7DEFC56
:1020200059A201210846FFF711FE5B48FFF728FB84
:102030006420FFF70DFA59A000680B9003220BA94A
:102040007020FFF7D3FB3220FFF702FA002499E05B
:10205000601C84B252A000680390032203A9702080
:10206000FFF7C4FB6420FFF7F3F9062209A97020EB
:10207000FFF73EFB9DF8243022464AA104A8FEF754
:10208000B5F804AA01210846FFF7E0FD9DF82600F7
:1020900000909DF825309DF8242045A104A8FEF766
:1020A000A5F804AA01210220FFF7D0FD9DF8290020
:1020B00000909DF828309DF827203DA104A8FEF748
:1020C00095F804AA01210320FFF7C0FD9DF8240024
:1020D00000F0800000284BD19DF8250000039DF8FA
:1020E000261040EA01109DF8271040EA21199DF8BA
:1020F00027000007000B9DF8281040EA01209DF8FA
:10210000291040EA010A484600F0D8F906462C4951
:1021100000F0E8F905464FF0934100F00DF98346D1
:10212000504600F0CBF90746264900F0DBF9064699
:102130004FF0934100F000F90546234900F09EFA64
:102140000290584600F06AF805460E46029800F0E4
:1021500065F807463A460B461CA104A8CDE900568F
:10216000FEF744F804AA01210420FFF76FFD04E004
:102170001AA201210420FFF769FD4FF47A70FFF7DE
:1021800067F900BF64E700004148543230205261D3
:102190007720446174610000A0860100BE08000041
:1021A000AC330000433A256420533A2530325800BE
:1021B0002530325820253032582025303258000042
:1021C0000000C8420000484300004842543A252E0F
:1021D000316620483A252E31660000004255535999
:1021E0000000000010B500290AD00878002807D0A8
:1021F00005487844FEF71AFD002801D0002010BDE4
:102200000248784410BD0000560C00004E0C00003F
:102210000808A0F500114FEA3101704743004FEA6A
:10222000D30C4FEA3C0C43401FBF40070CF16051F8
:1022300013F0FE4F70471CF0006F03D100200CF02C
:10224000004170470CF0004343EA507010B540EA7B
:10225000CC0000F0C8F900BF000000924FEA000176
:10226000FFF7D6BF4FF000414FF00000A1F500216D
:102270007047000090EA010F48BF81F0004100F173
:102280000482421A3CBF801A89184FEAD0524FF09C
:102290007F4C1CEA410FA2EBD15318BF9CEA026F9E
:1022A00000F03B804FF0004C4CEA00204CEA01214A
:1022B00021FA03FC10EB0C0C1ED202F1FF325FEA94
:1022C0001C2040EBC25038BF70471CF07F0F4FEA14
:1022D000400C18BFBCF17F4F38BF7047C3F12003DB
:1022E000994008BF20F00100BCF17F4F38BF704714
:1022F000A0F1C04000F0BDB94FEA3C00000A40EB3D
:10230000C25028BF1CF0FF0F4FEA400CE6D018BFA8
:10231000BCF17F4F38BF7047EAE79CEA026F05D0F7
:1023200010EA5C0F08BF00F00040704710B500F0E5
:102330005AF900BF64FBBE3E4FF47F0C1CEAD0127A
:102340001EBF1CEAD11392EA0C0F93EA0C0F00F0A7
:10235000858090EA010F48BF42F4807240F4000C7F
:1023600041F400002CF07F4120F07F4000B5814215
:10237000A2EB03020FF2081CACEB504EC0F10000C0
:102380009EF800E04FEA4E0E00FB0EFC38BF4900FD
:102390004FEA2C1C02F5FA020CFB0EF34FEACE1E9C
:1023A0004FEA112C4FEAC1210EEB635E42EB224251
:1023B0000EFB0CFC4FEA1C5300FB03114FEA112CDF
:1023C0004FEA01310EFB0CFC4FEADC4C00FB0C1118
:1023D000C14228BF09184CEB03335DF804EB10EB46
:1023E000410143EBC250B2F57C0F38BF704729D58D
:1023F00012F0F00F1CBF00F1C04000F00040704729
:10240000008182838485868788898B8C8D8E8F91CD
:102410009293959697999A9C9D9FA0A2A3A5A7A8F1
:10242000AAACAEB0B2B3B5B7B9BCBEC0C2C5C7C91D
:10243000CCCED1D4D7D9DCDFE2E6E9ECF0F3F7FA81
:10244000FE0000004FEA400C0CF1807CBCF17E4F96
:1024500028BF7047B0F1C04000F00BB990EA010FFF
:102460000CEAD11348BF42F48072624538BF63451D
:1024700007D213F47F0F16D080EA010000F000406D
:10248000704710B500F0AFF8097EFC3E00F005B8CB
:1024900080EA010000F00040704780EA010000F08F
:1024A000004000F0E6B812F47F0F04BF0248704706
:1024B00080EA010000F0DDB80000C07FB0FA80F3D0
:1024C00010FA03F2C3F19D030AD0D90501EB1220E3
:1024D000530638BF704700F1010008BF20F001002B
:1024E000704700004FF47F0C1CEAD0121EBF1CEA9C
:1024F000D11392EA0C0F93EA0C0F00F0478090EA98
:10250000010F48BF42F480724FF0004C4CEA0020AB
:102510004CEA012102EB0302A0FB0113A2F5000229
:10252000002918BF43F001035B0028BF4FEA3303C3
:1025300042EB22425FEA132C4CEBC2502EBFBCEBA5
:10254000436FB2F57C0F70474FEA036CBCF1004F4C
:1025500008BF20F00100B2F57C0F38BF70470BD5E3
:1025600082F0FF0212F5803FC8BF704700F1C04003
:10257000D8BF00F00040704700F5000C5FEA4C0C3B
:1025800048BF7047B0F1C04000F073B890EA010F47
:102590000CEAD11348BF42F48072624538BF6345EC
:1025A00004D280EA010000F00040704710B500F04E
:1025B0001AF800BF8900013E00F007B800F009B822
:1025C0005FEA410C5FEA1C6C08D080EA010000F071
:1025D00050B85FEA400C5FEA1C6CF6D14FF0004047
:1025E000A0F5800070470EF1020E2EF0030E5EF88B
:1025F000044B244204D44FEA4102B2F17F4F11D878
:102600004FEA4003B3F17F4F0CD80ED14FEAD07C94
:10261000B2F17F4F0CEB4C0C0CF1020C08BF4CEBF1
:10262000D17C04E04FF0080C01E04FEAD17C0CEBC8
:102630004C0324FA03F404F00704B4F1040C06D2AA
:102640000EEB840CBDE810404CF0010C6047DFE855
:102650000CF0070802024FF00040A0F5800010BD0A
:102660000846420018BFD2F1807288BF00F00040D7
:1026700010BDFF2141EAD050C005704790EA010F1C
:1026800048BF81F000413FF5FCAD421A04D882F00A
:102690000042A0EB020011444FEAD0524FF07F4CB1
:1026A0001CEA410FA2EBD15318BF9CEA026F4AD03B
:1026B0004FF0004C4CEA00204CEA012121FA03FCC7
:1026C000B0EB0C0C0FD412F0FE0F36D05FEA4C00CA
:1026D0001DD5001240EBC25038BF70471CF03F0FB1
:1026E00018BF70470BE0A2F101025FEA1C2040EB2B
:1026F000C25038BF70471CF07F0F18BF7047C3F13E
:102700002003994014BF401E20F00100704780084C
:102710004FEA122308BF7047B0FA80FCA2EB0C020C
:10272000CCF1280C60FA0CF093EA122F04BF00EBF6
:10273000C25070474FEAC3707047130A5FEADC105B
:1027400008BF7047F6E79CEA026F04D010EA5C0FFE
:1027500008BF0020704710B5FFF745FF40DFF63E89
:1027600081F000407047FDF7DEBF00000000000070
:1027700000000000000000000000000000F8000061
:102780000000000000333000000000100C06100CA8
:102790000600000000000000000040C07840C07843
:1027A0004000043F04043F040400007088FC08302B
:1027B0000000001820FF211E0000F008F000E018C3
:1027C000000000211C031E211E0000F0088870007C
:1027D00000001E2123241927211010160E000000CE
:1027E00000000000000000000000000000E01804ED
:1027F0000200000000071820400000020418E0005A
:1028000000000040201807000000404080F0804099
:1028100040000202010F01020200000000F000006F
:1028200000000101011F0101010000000000000083
:10283000000080B0700000000000000000000000F8
:102840000000000101010101010100000000000081
:102850000000003030000000000000000000806038
:102860001804006018060100000000E010080810BD
:10287000E000000F102020100F00001010F80000E2
:1028800000000020203F2020000000700808088879
:102890007000003028242221300000300888884849
:1028A00030000018202020110E000000C02010F879
:1028B000000000070424243F240000F8088888084A
:1028C00008000019212020110E0000E0108888184F
:1028D0000000000F112020110E0000380808C83831
:1028E00008000000003F0000000000708808088811
:1028F0007000001C222121221C0000E0100808109A
:10290000E0000000312222110F00000000C0C000D2
:1029100000000000003030000000000000800000D7
:1029200000000000806000000000000080402010D7
:1029300008000001020408102000404040404040D0
:102940004000040404040404040000081020408033
:102950000000002010080402010000704808080868
:10296000F0000000003036010000C030C828E81038
:10297000E0000718272423140B000000C038E000F3
:102980000000203C23020227382008F8888888703D
:102990000000203F202020110E00C0300808080849
:1029A0003800071820202010080008F80808081030
:1029B000E000203F202020100F0008F88888E80859
:1029C0001000203F20202320180008F88888E808FD
:1029D0001000203F200003000000C0300808083825
:1029E000000007182020221E020008F80800000836
:1029F000F808203F210101213F20000808F80808BD
:102A000000000020203F2020000000000808F808F7
:102A10000800C08080807F00000008F888C0281867
:102A20000800203F20012638200008F80800000098
:102A30000000203F20202020300008F8F800F8F89F
:102A40000800203F003F003F200008F830C0000889
:102A5000F808203F200007183F00E0100808081081
:102A6000E0000F10202020100F0008F808080808C8
:102A7000F000203F210101010000E01008080810CB
:102A8000E0000F18242438504F0008F88888888800
:102A90007000203F2000030C3020007088080808D8
:102AA00038000038202121221C00180808F80808E6
:102AB00018000000203F2000000008F8080000086F
:102AC000F808001F202020201F000878880000C878
:102AD0003808000007380E010000F80800F8000868
:102AE000F800033C0700073C030008186880806872
:102AF000180820302C03032C30200838C800C838B0
:102B000008000000203F2000000010080808C83816
:102B100008002038262120201800000000FE0202B4
:102B200002000000007F40404000000C30C0000068
:102B30000000000000010638C00000020202FE0092
:102B40000000004040407F0000000000040202023C
:102B50000400000000000000000000000000000071
:102B6000000080808080808080800002020400005D
:102B70000000000000000000000000008080808055
:102B800000000019242222223F2008F80080800043
:102B90000000003F112020110E0000000080808006
:102BA0000000000E1120202011000000008080880D
:102BB000F800000E112020103F200000808080804F
:102BC0000000001F222222221300008080F088884B
:102BD00088180020203F2020000000008080808096
:102BE0008000006B94949493600008F800808080CB
:102BF0000000203F210000203F2000809898000026
:102C000000000020203F2020000000000080989855
:102C1000000000C08080807F000008F800008080F5
:102C20008000203F24022D302000000808F800001A
:102C300000000020203F20200000808080808080D5
:102C40008000203F20003F20003F80800080808067
:102C50000000203F210000203F2000008080808075
:102C60000000001F202020201F00808000808000A6
:102C7000000080FFA12020110E0000000080808055
:102C80008000000E112020A0FF80808080008080C6
:102C9000800020203F2120000100000080808080F3
:102CA00080000033242424241900008080E08080E8
:102CB00000000000001F2020000080800000008035
:102CC0008000001F202020103F2080808000008096
:102CD000808000010E3008060100808000800080A6
:102CE00080800F300C030C300F000080800080804B
:102CF00080000020312E0E31200080808000008076
:102D0000808080818E701806010000808080808025
:102D100080000021302C2221300000000000807C47
:102D2000020200000000003F404000000000FF00E1
:102D3000000000000000FF0000000002027C800094
:102D400000000040403F00000000000601010202B8
:102D5000040400000000000000003031323334353C
:102D600036373839414243444546403058003031C7
:102D700032333435363738396162636465664030E2
:102D800078000400000800000000000000020001BC
:102D90000000100002400000000000A00000000041
:102DA00005400000000000C8000000000C400000CA
:102DB0000000409C00000000194000000020BCBE44
:102DC0000000000034400000BFC91B8E000000045A
:102DD000B5400000504BCFD06607E2CF01000000A5
:102DE0006C4100003E8251AADFEEA73401000000D2
:102DF000D9420000DCB5A0E23A301F97FFFFFFFF89
:102E0000B4450000FD25A0C8E9A3C14FFFFFFFFFA7
:102E1000FF3F00000000008000000000FF3F0000B6
:102E20000000008000000000642E00080000002068
:102E300018000000280100087C2E0008180000205F
:102E400060060000440100081C0000004300000070
:102E5000F8FFFFFF0C0000000E0000000F00000054
:102E60002E00000000000000010203040102030420
:0C2E700006070809020406080000000024
:04000005080000ED02
:00000001FF
